:020000040800F2
:10000000880400200101000841150008150D0008B2
:100010003D1500081D090008DF1D00080000000054
:10002000000000000000000000000000251A000889
:100030006509000800000000C91500080D1B000834
:100040001B0100081B0100081B0100081B01000820
:100050001B0100081B0100081B0100081B01000810
:100060001B0100081B0100081B0100081B01000800
:100070001B0100081B0100081B0100081B010008F0
:100080001B0100081B0100081B0100081B010008E0
:100090001B0100081B0100081B010008690900087A
:1000A0001B0100081B0100081B0100081B010008C0
:1000B000651B0008A91B00081B0100081B010008A4
:1000C0001B0100081B0100081B0100081B010008A0
:1000D0001B0100081B010008E51C00081B010008AB
:1000E0001B0100081B0100081B010008DFF80CD0F1
:1000F00000F002FC004800470128000888040020A6
:100100000648804706480047FEE7FEE7FEE7FEE7B1
:10011000FEE7FEE7FEE7FEE7FEE7FEE7111B00084D
:10012000ED00000840EA01039B0703D009E008C97D
:10013000121F08C0042AFAD203E011F8013B00F8AC
:10014000013B521EF9D27047421E12F8013F002BAC
:10015000FBD111F8013B02F8013B002BF9D17047AC
:10016000F0B480EA0102D40F4200B2EB410F02D298
:100170000246084611464A0042D0C30DDDB2C1F323
:10018000C752AD1A202D35DAC1F3160141F4000231
:1001900004B15242C5F1200602FA06F12A41104488
:1001A000B3EBD05F23D0C4B1012DA0EBC35009DC69
:1001B000F0BC4FF0004202EAC352DBB200F500008F
:1001C00000F0F7BA400000F1807000EBC350A0F1DE
:1001D000807040EAD170490009E0490841EAC071E5
:1001E000A0EBC35000F50000400800EBC350F0BC8A
:1001F00000F0D6BA6142012202EB4101001BF6E792
:10020000F0BC704781F00041AAE780F00040A7E70A
:1002100030B480EA010202F0004530F0004221F0E3
:10022000004013D090B1C30DD40DC2F31601C0F33A
:100230001600E41A41F4000140F400027D349142BA
:1002400001D3641C00E04900002C02DA30BC00201D
:1002500070474FF400000023914201D3891A0343F1
:1002600040084FEA4101F7D151B1914202D14FF01C
:10027000004105E002D24FF0010101E06FF0010101
:1002800003EBC450284430BC00F08ABA2DE9FE4F7D
:10029000804681EA0300C00F0C46009021F0004127
:1002A00023F00045B8EB0200A94105D240462146A3
:1002B00090461C460B46024623F00040104347D0B0
:1002C000270DC7F30A00C3F30A510290401A0190A8
:1002D00040286BDAC3F3130040F4801B0098924669
:1002E00020B10023D2EB030A63EB0B0B01985946B4
:1002F000C0F14002504600F022FA06460D46504634
:100300005946019A00F03AFA10EB080061410024C6
:1003100087EA115284EAE7731A4340D0009A62B325
:10032000019A012A4FEA075215DC001B61EB02011A
:100330004FF0004202EA0752CDE90042001C41F5AD
:10034000801132462B4600F071FA03B0BDE8F08F01
:1003500040462146F9E7001B61EB0201001C41F514
:10036000801300185B412018A2F5001747EB03012A
:1003700040EAD570B6196D4111E06D084FEA3606B6
:1003800045EAC0754FEA0752001B61EB0201001CF1
:1003900041F5801149084FEA3000001951413246B9
:1003A0002B4603B0BDE8F04F00F031BA00980122AF
:1003B00040000023D0EB020263EBE073009821467B
:1003C0004FEAE074B8EB000061EB0401E9E783F069
:1003D00000435BE781F0004158E72DE9FE4F81EAD9
:1003E000030404F0004421F0004100944FF0000B9E
:1003F00023F0004350EA01045ED052EA03045BD0CC
:10040000C3F30A54C1F30A552C44A4F2F334019403
:10041000A0FB0254C1F3130141F48011C3F3130391
:1004200043F4801301FB024400FB034E840A970A45
:1004300044EA815447EA8357A4FB076802958D0A72
:1004400005FB07854FEA932C04FB0C542705029DFE
:100450004FEA065847EA1637B5EB08056EEB070C6E
:10046000870E920E47EA811742EA8312A7FB020128
:10047000B6EB0B0164EB00042B0D43EA0C335E1862
:1004800044EB1C50DA465146E7FB0201C5F3130466
:100490004FEA0B3343EA14534FEA0432019C43EA18
:1004A0000603A4F10C040294009CCDE900B400F012
:1004B000BDF903B0BDE8F08F00200146F9E72DE952
:1004C000F04D81EA030404F0004B21F0004514468E
:1004D0004FF0000A23F0004150EA050220D054EA10
:1004E00001021DD0C5F30A570246C5F31303C1F339
:1004F0001300C1F30A5640F4801543F48013A7EBB0
:100500000608101BD64608F2FD3873EB050002D32F
:1005100008F1010801E092185B41B8F1000F03DA1D
:1005200000200146BDE8F08D00204FF48011064602
:1005300084460EE0171B73EB050705D3121B63EB14
:10054000050306434CEA010C49084FEA30009218B3
:100550005B4150EA0107EDD152EA030012D082EA72
:10056000040083EA0501084305D0101BAB4106D205
:100570000122002306E000224FF0004302E06FF06A
:10058000010253101AEB06004CEB085110EB0A0065
:1005900041EB0B01BDE8F04D00F039B9C10F80EA25
:1005A000E0700844CA079623002100F002B90EB596
:1005B00040F2334102910021CDE900110A460B4679
:1005C00000F034F903B000BDC1F30A5210B5C1F315
:1005D000130140F2FF3341F480119A4201DA002006
:1005E00010BD40F233439A42A2F2334203DC52423E
:1005F00000F0B4F810BD904010BD00F0004230F0A3
:1006000000400AD0C10D01F56071C0F3160042EA46
:100610000151C2084007114370470020014670474E
:1006200030B5041E71F1000404DB4FF00044404279
:1006300064EB0101141E73F1000405DB1C464FF04E
:100640000043524263EB0403994208BF904230BD1D
:1006500001F0004330B421F0004150EA010206D01D
:100660000A0DA2F56072C1F31301002A02DC30BC4E
:1006700000207047440F44EAC104C100E01830BCB8
:1006800000EBC25000F08CB8002801DBC0F1004044
:10069000002901DBC1F1004181427047002801DBE4
:1006A000C0F10040002901DBC1F1004188427047E0
:1006B00030B50B46014600202022012409E021FA32
:1006C00002F59D4205D303FA02F5491B04FA02F52F
:1006D0002844151EA2F10102F1DC30BD2DE9F05FC6
:1006E0000546002092469B468846064681464024A1
:1006F0001BE0284641464746224600F02FF8534665
:100700005A46C01A914110D311461846224600F0AD
:1007100016F82D1A67EB01084F46224601200021EA
:1007200000F00DF817EB00094E41201EA4F1010462
:10073000DFDC484631462A464346BDE8F09F202A82
:1007400004DB203A00FA02F1002070479140C2F128
:10075000200320FA03F3194390407047202A04DB5A
:10076000203A21FA02F00021704721FA02F3D0402A
:10077000C2F120029140084319467047202A06DB47
:10078000CB17203A41FA02F043EAE07306E041FA5F
:1007900002F3D040C2F1200291400843194670474D
:1007A0000029A8BF7047401C490008BF20F0010085
:1007B000704710B4B0FA80FC00FA0CF050EA010463
:1007C00004BF10BC704749B1CCF1200421FA04F4F5
:1007D00011FA0CF118BF012121430843A3EB0C01CE
:1007E000CB1D4FEA00614FEA102042BF002010BC31
:1007F000704700EBC35010440029A4BF10BC7047E1
:10080000401C490008BF20F0010010BC704710B523
:10081000141E73F1000408DA401C41F10001921823
:100820005B411A4301D120F0010010BD2DE9F04DCC
:1008300092469B4611B1B1FA81F202E0B0FA80F221
:1008400020329046FFF77BFF04460F4640EA0A003D
:1008500041EA0B0153465A46084313D0114653EA66
:10086000010019D0C8F140025046FFF777FF054656
:100870000E46504659464246FFF761FF084305D0F1
:10088000012004E020463946BDE8F08D00200543F4
:1008900046EAE0762C4337430A986305E40AA0EB66
:1008A00008000022FD0A44EA47540A3002D500201D
:1008B0000146E9E7010510196941DDE9084500191C
:1008C0006941BDE8F04DA2E7C1F30A52C1F313013B
:1008D00040F2FF3341F480119A4202DA00200146CF
:1008E000704740F233439A42A2F2334202DC524252
:1008F000FFF734BFFFF723BF064C074D06E0E06863
:1009000040F0010394E8070098471034AC42F6D356
:10091000FFF7F0FBFC2C00081C2D000870470000BE
:100920002DE9F04102F094F80A490968401A0A4991
:10093000086008460068FFF73AFE0646074A084B7B
:10094000FFF74BFD0446FFF73FFE03490860BDE893
:10095000F08100002C00002028000020B30C71ACB6
:100960008BDB0540704700002DE9F041402000F08E
:1009700083F8C8B136480068FFF73FFE06460022FC
:10098000344BFFF783FC0446FFF762FE30490860F2
:1009900031492F480068FFF781FE02D82E482C49C4
:1009A0000860402000F062F8202000F065F878B37D
:1009B0002A4804780121880701F00DF911E0274841
:1009C000007884420DD01021254800F069F90021FB
:1009D0004FF0804001F0FFF8202000F047F8BDE81C
:1009E000F08120211E4800F050F90028E7D01D4872
:1009F000007808B9012000E000201A4908700021A1
:100A00004FF0804001F0E7F8202000F02FF800BF01
:100A1000802000F031F8C8B10D480068FFF7EDFD07
:100A2000064600220B4BFFF7D2FC0446FFF710FEF0
:100A3000074908600C4906480068FFF725FE02D206
:100A4000094803490860802000F010F800BFC6E79D
:100A5000200000200000E03F000020422500002090
:100A600000080140240000200000A0410149086066
:100A70007047000014040140014600200022074B8B
:100A80001B6803EA0102054B14331B680B4013B1CA
:100A90000AB1012000E0002070470000000401407E
:100AA000002123498279002A3AD00A461268036855
:100AB0009A430B461A600A1D126803689A430B1D7D
:100AC0001A60027911440A6803681A430A60184AD6
:100AD0000832126803689A43154B08331A601A1DCE
:100AE000126803689A43124B0C331A604279102A39
:100AF0000ED11A1F126803681A430D4B08331A608F
:100B00001A1D126803681A43094B0C331A600DE072
:100B10000749427911440A6803681A430A6005E0EC
:100B2000027911440A6803689A430A60704700001A
:100B30000004014030B500228B071C0F0F2303FA7D
:100B400004F20B4B8C1053F824309343084C8D1057
:100B500044F8253023468C1053F824308C07240F9A
:100B600000FA04F42343024C8D1044F8253030BDC4
:100B7000080001402DE9F041024600250026002032
:100B800000230024002791F803C00CF00F0591F812
:100B900003C00CF0100CBCF1000F03D091F802C0A0
:100BA0004CEA050591F800C0BCF1000F31D0146883
:100BB00000202BE04FF0010C0CFA00F3B1F800C05C
:100BC0000CEA03069E4220D183004FF00F0C0CFA72
:100BD00003F7BC4305FA03FC4CEA040491F803C094
:100BE000BCF1280F06D14FF0010C0CFA00FCC2F842
:100BF00014C00AE091F803C0BCF1480F05D14FF0D2
:100C0000010C0CFA00FCC2F810C0401C0828D1D31B
:100C10001460B1F800C0BCF1FF0F34DD546800204F
:100C20002EE000F1080C4FF0010808FA0CF3B1F8BF
:100C300000C00CEA03069E4221D183004FF00F0C46
:100C40000CFA03F7BC4305FA03FC4CEA040491F8E0
:100C500003C0BCF1280F05D100F1080C08FA0CF80C
:100C6000C2F8148091F803C0BCF1480F07D100F11D
:100C7000080C4FF0010808FA0CF8C2F81080401C6C
:100C80000828CED35460BDE8F08102460020936866
:100C90000B400BB1012000E000207047416170471C
:100CA0000161704710B586B01422154901A8FFF7FD
:100CB00039FA2021134801F02BF801280CD105E066
:100CC000104801F083F8C4B20F48047020210D4889
:100CD00001F01EF80128F3D00B4802780BA10C4854
:100CE00001F08EF80A4901A8FFF72EFA042100202E
:100CF00001F076FD01A800F0DFFA204606B010BD35
:100D0000002B00080044004039000020256300004B
:100D10007800002000BFFEE710B500200F490860F2
:100D20000F48006820F070400D49086008460068D0
:100D300040F04050086000200A49C1F89C010220A0
:100D400001F01EFD012005490860022001F018FD98
:100D500000200449C1F8980110BD0000988121428B
:100D6000000C01400080214208B50121082000F05C
:100D70003DFCC020ADF8000010208DF803000220DB
:100D80008DF8020069460548FFF7F4FE012004498A
:100D900008600449C1F89C0108BD0000000C014036
:100DA000988121420080214210B500200F4908603F
:100DB0000F48006820F070400D4908600846006840
:100DC00040F04050086001200A49C1F89C0102200F
:100DD00001F0D6FC012005490860022001F0D0FC9A
:100DE00000200449C1F8980110BD000098812142FB
:100DF000000C0140008021422DE9F04104460F46DD
:100E000015461E4600F09AF8204600F067F800BF2D
:100E100000F0E2F80028FBD1384600F05FF800BF90
:100E200000F0DAF80028FBD100F088F844F0010067
:100E300000F054F800BF00F0CFF80028FBD10DE01F
:100E4000012D04D1012000F011F8307003E00020E2
:100E500000F00CF83070681EC5B2761C002DEFD182
:100E600000F094F80020BDE8F081000070B5054660
:100E7000002600241648006820F0704014490860DD
:100E80000846006840F00040086000BF15E0002000
:100E900010490860022001F073FC01200E49C1F8DE
:100EA0009801022001F06CFC6006040E09487C38B1
:100EB000006808B1601CC4B2761C082EE7DB15B9C7
:100EC000FFF72AFF01E0FFF76FFF204670BD00002B
:100ED000000C0140988121420080214270B50446F7
:100EE00000251348006820F070401149086008464A
:100EF000006840F04050086000200E49086000BFC4
:100F000013E0E0090B49091D08606006040E022089
:100F100001F036FC01200849C1F89801022001F0D7
:100F20002FFC0020034908606D1C082DE9DB70BD13
:100F3000000C0140988121420080214210B51048E8
:100F4000006820F070400E4908600846006840F0D4
:100F50004050086001200B4908600B49C1F89C0112
:100F6000042001F00DFC00200649091D0860042042
:100F700001F006FC00200449C1F8980110BD0000F2
:100F8000000C0140988121420080214210B50F4899
:100F9000006820F070400D4908600846006840F085
:100FA0004050086000200A4908600A49C1F89C01C5
:100FB000042001F0E5FB01200549091D08600549F1
:100FC000C1F89801042001F0DBFB10BD000C0140CA
:100FD000988121420080214210B500241448006805
:100FE00020F07040124908600846006840F0004058
:100FF000086001200F49086001F0C2FB01200E4982
:10100000C1F8980101F0BCFB07E0601CC4B2FA2CE7
:1010100003DDFFF7BBFF012010BD064880380068E4
:101020000028F2D10349091F086000BFF4E700005F
:10103000000C01409C8121420080214270B5044691
:101040000D461646FFF77AFF2046FFF747FFFFF7EA
:10105000C3FF18B1FFF79AFF012070BD2846FFF7C4
:101060003DFFFFF7B9FF18B1FFF790FF0120F4E74C
:101070003046FFF733FFFFF7AFFF18B1FFF786FFEA
:101080000120EAE7FFF782FF022001F05BFB00206E
:10109000E3E700001FB50121052000F0A7FA4FF497
:1010A000E070ADF8000048208DF803006946124852
:1010B000FFF760FD0F210020FFF73CFDE0200190CD
:1010C00000208DF808000C208DF8090001208DF813
:1010D0000A0001A8FFF7E4FC17208DF80C0003209C
:1010E0008DF80D008DF80E0001208DF80F0003A87B
:1010F00000F028FA1FBD000000080140F8B50746BF
:101100000D4614461E460121384600F06FFAADF830
:10111000004002208DF802008DF8036069462846E1
:10112000FFF728FD21462846FFF7BAFDF8BD1FB599
:101130000121084600F04AFA1720ADF8000040F2FD
:10114000E730ADF804000020ADF8020069464FF02A
:10115000804000F067FD01221146900700F058FD25
:101160001C208DF80C0000208DF80D008DF80E006D
:1011700001208DF80F0003A800F0E4F91FBD000066
:101180001FB50121022000F021FA1720ADF8000060
:1011900040F2E730ADF804000020ADF802006946E7
:1011A0004FF0804000F03EFD012211460A4800F059
:1011B0002FFD1D208DF80C0004208DF80D008DF8FA
:1011C0000E0001208DF80F0003A800F0BBF90121EB
:1011D000014800F000FD1FBD0004004070B5054649
:1011E0000021012000F074F800240AE0A5F120009D
:1011F00000EB8000064A1044015D012000F068F811
:10120000641C052CF2D30021012000F061F870BDB0
:101210001C2B000810B5002404E00021012000F080
:1012200057F8641CB4F5FC7FF7D30021084601F0A1
:10123000D7FA10BD10B5044600F06AF801211C4829
:10124000FFF72EFD02211A48FFF72AFD4FF4005147
:101250001848FFF725FD4FF400411648FFF720FD21
:101260004FF480411348FFF71BFD01211048FFF7A1
:1012700015FD01210E48FFF713FD2121002000F08C
:1012800027F804F18000C1B2002000F021F8042109
:10129000002000F01DF81021002000F019F8202196
:1012A000002000F015F80C21002000F011F810BD0E
:1012B000000C01400010014010B5044603E014F892
:1012C000010BFFF78BFF20780028F8D110BD00003C
:1012D00070B505460C462DB14FF400510A48FFF792
:1012E000DFFC04E04FF400510748FFF7D7FC022170
:1012F0000648FFF7D3FC204601F0B0FB022103486B
:10130000FFF7CEFC70BD000000100140000C014052
:1013100008B50121182000F069F90120ADF800009E
:1013200002208DF8020010208DF8030069461D4848
:10133000FFF720FC0220ADF800008DF8020010201D
:101340008DF8030069461748FFF714FC4FF400506E
:10135000ADF8000002208DF8020010208DF8030087
:1013600069461148FFF706FC4FF48040ADF80000D5
:1013700002208DF8020010208DF8030069460A480B
:10138000FFF7F8FB4FF40040ADF8000002208DF8A5
:10139000020010208DF8030069460348FFF7EAFBBE
:1013A00008BD0000000C014000100140F0B591B0F4
:1013B00014224B490CA8FEF7B5FE142248491431FB
:1013C00007A8FEF7AFFE14224549283102A8FEF710
:1013D000A9FE43483C3000680190FFF71BFF002145
:1013E0000D2001F0FDF93FA0FFF766FF40480068BF
:1013F000FFF703F9044622460B463EA13F4800F0A2
:10140000FFFC3E490CA8FEF79FFE0121002001F0E1
:10141000E7F90CA8FFF750FF39480068FFF7EDF82F
:10142000044622460B4637A1344800F0E9FC334914
:1014300007A8FEF789FE0221002001F0D1F907A8D4
:10144000FFF73AFF31480078012804D130A102A803
:10145000FEF77AFE03E02FA102A8FEF775FE2E48E4
:101460000068FFF7CAF8044622460B462BA1234822
:1014700000F0C6FC214902A8FEF766FE0321002009
:1014800001F0AEF902A8FFF717FF2648027826A15F
:101490001A4800F0B5FC194901A8FEF755FE0321D2
:1014A000402001F09DF901A8FFF706FF1F480088C2
:1014B000FFF77DF8064600221D4BFFF700F80446B3
:1014C00022460B461BA10D4800F09AFC0221402049
:1014D00001F086F90948FFF7EFFE11B0F0BD0000FA
:1014E000C02A0008424C455F534854333100000085
:1014F0001000002025342E326643000078000020C2
:101500001400002025342E326625250025000020F9
:101510003E0000003C0000002000002025342E3159
:10152000663F000024000020256400000A0000201F
:1015300000408F4025312E316600000000BFFEE7DD
:101540007047000070B5002100230F22C47804B357
:10155000154C246804F4E064C4F5E064210AC1F188
:101560000403CA40447804FA03F184781440214308
:1015700009010E4C0678A155047804F01F050124DA
:10158000AC4005786D11AD0005F1E025C5F80041CE
:1015900009E0047804F01F050124AC40044D0678EE
:1015A000761145F8264070BD0CED00E000E400E047
:1015B00080E100E002490143024A116070470000E7
:1015C0000000FA050CED00E07047000029B1064A62
:1015D000D2690243044BDA6104E0034AD2698243D0
:1015E000014BDA61704700000010024029B1064A41
:1015F00092690243044B9A6104E0034A9269824370
:10160000014B9A61704700000010024030B5002184
:101610000022002400232D4D6D6805F00C0121B13E
:10162000042905D0082923D105E0294D056022E0D1
:10163000274D05601FE0254D6D6805F47012234DA0
:101640006D6805F48034022505EB92421CB9214DEA
:10165000554305600BE01D4D6D6805F400351DB167
:101660001C4D5543056002E0194D5543056002E0ED
:10167000174D056000BF00BF144D6D6805F0F00107
:101680000909154D6B5C0568DD4045600F4D6D68BF
:1016900005F4E061090A104D6B5C4568DD4085602A
:1016A0000A4D6D6805F46051C90A0B4D6B5C4568C5
:1016B000DD40C560054D6D6805F44041890B074D5F
:1016C0006B5CC568B5FBF3F5056130BD00100240E9
:1016D00000127A0000093D00500000206000002048
:1016E0002DE9F0414848007835282DD00ADCA0F1DA
:1016F0002B000A2871D2DFE800F0408358838383EF
:1017000014181D22392833D006DC362821D037287A
:1017100024D0382874D126E0612868D063286FD19E
:101720005CE0C820394908806BE04FF4FA70374913
:10173000088066E04FF47A703449088061E040F236
:10174000DC50324908805CE04FF4FA602F49088091
:1017500057E041F288302D49088052E042F2107083
:101760002A4908804DE043F698202849088048E03F
:1017700047F230502549088043E025480068FEF7CD
:101780003CFF0646234A244BFEF780FD0446FEF745
:101790005FFF1F49086021491D480068FEF77EFF72
:1017A00002D21E481A4908602BE019480068FEF76B
:1017B00024FF0646174A184BFEF709FE0446FEF7BB
:1017C00047FF13490860164911480068FEF75CFF9F
:1017D00002D213480E49086013E011E01148007866
:1017E00008B9012000E000200E49087009E00E4809
:1017F000007808B9012000E000200B49087000BF04
:1018000000BF00BFBDE8F081380000200A000020C2
:10181000200000209A9999999999B93F0000204297
:101820000000A041250000202400002010B5024641
:10183000FF21002313E0D05C414008240BE001F0BD
:10184000800020B1312080EA4100C1B201E04806A9
:10185000010E601EC4B2002CF1DC581CC3B2022B76
:10186000E9DB9078884201D0002010BD0120FCE720
:1018700070B50446627821788820FFF7DFFB3220BC
:1018800000F060FF164B062200218820FFF7B4FA13
:1018900013494978124A127841EA0221AF2201FB2A
:1018A00002F0FEF77BFE06460E49FEF7B1FC054648
:1018B0000D49FEF7A7FC0D49086009490979084A56
:1018C000D27841EA0221642201FB02F0FEF766FEB3
:1018D00005460449FEF79CFC0549086070BD000000
:1018E0001800002000FF7F47000034421000002055
:1018F0001400002010B541480078012878D14048F4
:101900000078012837D13F4801683F480068FEF75A
:10191000C5FE24D83D48007870B90521142000F098
:101920005FFF3BA0FFF7C8FC10213B48FFF7B6F96B
:101930000120364908705FE03448007801285BD107
:101940000521142000F04CFF34A0FFF7B5FC102156
:101950003148FFF7A5F900202C4908704CE02948D0
:10196000016829480068FEF78FFE45D210212A48F9
:10197000FFF796F940E02248007800283CD1214842
:10198000016821480068FEF77FFE24D21F480078D6
:1019900070B90521142000F023FF1DA0FFF78CFC77
:1019A00010211D48FFF77AF901201849087023E03B
:1019B0001648007801281FD10521142000F010FFDF
:1019C00016A0FFF779FC10211348FFF769F90020F2
:1019D0000E49087010E00B4801680B480068FEF7DC
:1019E0005DFE09D210210C48FFF75AF904E0FFE729
:1019F00010210948FFF754F910BD00002400002011
:101A00002500002020000020100000203A000020C7
:101A10003C414C4552543E00000801405F5F5F5F0F
:101A20005F5F5F00704710B500F002F810BD000066
:101A30000CB50020019000903248006840F48030DE
:101A40003049086000BF2F48006800F40030009063
:101A50000198401C0190009818B90198B0F5A06F4A
:101A6000F1D12848006800F4003010B10120009046
:101A700001E0002000900098012840D12248006831
:101A800040F01000204908600846006820F003007C
:101A900008600846006808601A48406819494860AC
:101AA0000846406848600846406848600846406804
:101AB00020F47C1048600846406840F49810486064
:101AC0000846006840F08070086000BF0D4800685C
:101AD00000F000700028F9D00A48406820F00300A8
:101AE000084948600846406840F00200486000BF6E
:101AF0000448406800F00C000828F9D101E000BF5C
:101B0000FEE70CBD001002400020024070470000BC
:101B100010B51148006840F001000F490860084600
:101B200040680E4908400C494860084600680C4966
:101B30000840094908600846006820F480200860D1
:101B40000846406820F4FE0048604FF41F0088609B
:101B5000FFF769FF10BD0000001002400000FFF811
:101B6000FFFFF6FE10B50121880700F040F8B0B184
:101B70000B480068401C0A490860B0F5FA6F0AD9A2
:101B80000848007808B9012000E0002005490870E5
:101B90000020034908600121880700F019F810BDF2
:101BA0004C0000202500002010B50121064800F05F
:101BB0001EF840B105480068401C04490860012136
:101BC000014800F005F810BD000400404800002066
:101BD000CA430282704721B1028842F001020280AA
:101BE00004E0028840F2FE331A400280704730B5AC
:101BF0000246002000230024158A05EA0103958986
:101C000005EA010413B10CB1012000E0002030BD51
:101C10001AB183890B43838102E083898B438381DB
:101C200070470000028802F08F020280CA884B8849
:101C30001A4303881A4302808A8882850A880285AB
:101C4000054A904202D0054A904201D10A7A0286A2
:101C50000122828270470000002C014000340140C4
:101C600010B586B0044601210520FFF7BFFC012115
:101C70004804FFF7ABFC0420ADF8140018208DF8E1
:101C8000170003208DF8160005A91448FEF772FF0F
:101C90000820ADF8140004208DF8170005A90F489E
:101CA000FEF768FF01940020ADF80800ADF80A00C7
:101CB000ADF80C00ADF810000C20ADF80E0001A935
:101CC000074800F033F82021054800F00CF8012106
:101CD000034800F011F806B010BD000000080140F4
:101CE00000440040704701F40072B2F5007F00D15B
:101CF00000BFCA430280704721B1828942F400527A
:101D0000828104E082894DF6FF731A408281704718
:101D100002460020B1F5007F00D100BF13880B40C0
:101D20000BB1012000E00020704700002DE9F047D2
:101D300086B005460E460024A24600BF00BF00271D
:101D4000B08900B100BF2F462C8A4CF6FF700440CA
:101D5000F08804432C82AC894EF6F3100440B0881E
:101D600031890843718908430443AC81AC8A4FF63A
:101D7000FF400440B0890443AC8201A8FFF746FC51
:101D80001148874202D1DDF810A001E0DDF80CA077
:101D90000AEBCA0000EB0A1031688900B0FBF1F8C9
:101DA0006420B8FBF0F004012009642101FB1089D4
:101DB000322000EB0910B0FBF1F000F00F000443FB
:101DC0002C8106B0BDE8F0870038014001468888C4
:101DD000C0F308007047C1F3080282807047704763
:101DE0000FB4054B10B503A9044A029800F0EEF8B1
:101DF00010BC5DF814FB0000BD2700087400002033
:101E00000FB4084B10B504A902AA039800F0DEF83D
:101E1000044602A9002000F070FC204610BC5DF8CA
:101E200014FB0000FB26000802E008C8121F08C1CE
:101E3000002AFAD170477047002001E001C1121F4B
:101E4000002AFBD1704700002DE9FF5F82B000211E
:101E5000DDE90430020DDDF840B0034318D044F64C
:101E60001050A2F2FF3242431514119801281FD0DE
:101E7000A5EB0B00401C5FEA000A4FF000064E4F36
:101E8000DFF83891B046504615D5CAF1000413E08A
:101E9000119801244AA3012801D16FEA0B0102988D
:101EA000119AC0E90031C0E9024206B0BDE8F09FD6
:101EB000CBF10000DFE704460021404A491842EB1D
:101EC0000450CDE9001012E0E00707D032463B464F
:101ED00040464946FEF781FA8046894632463B46EF
:101EE00010461946FEF779FA06460F466410002C94
:101EF000EAD1DDE90401DDE90023BAF1000F06DAD9
:101F0000FEF76BFA42464B46FEF767FA05E0FEF72E
:101F1000D6FA42464B46FEF7D2FA04460E46002257
:101F2000284BFEF77DFB03D84FF0FF30014607E05A
:101F30000022254B20463146FEF7A8F9FEF7C4FCE7
:101F4000102409E0002C0ADB0A220023FEF7C6FB5E
:101F5000039B30321A55641E50EA0102F2D1641C10
:101F6000039AC4F111031444119A012A03D00122E7
:101F700008430DD10AE0084304D000204FF0110BB4
:101F8000119072E7A3EB0B056D1E0DE05B4504DDC0
:101F90004FF0000205F1010504E003DA4FF0000202
:101FA000A5F10105002AECD002981199C0E902318F
:101FB000C0E9004579E70000000014400000F03F50
:101FC000300000000000F0430000E03F2DE9FF4F2B
:101FD00095B09B468946064600250FE2252877D115
:101FE00000242746F84A0121059400E0044316F82E
:101FF000013F203B01FA03F01042F7D130782A2844
:1020000011D06FF02F033078A0F13002092A16D8D2
:10201000059A44F0020402EB820203EB42021044F0
:10202000761C0590EFE759F8042B0592002A03DA95
:10203000504244F40054059044F00204761C307879
:102040002E2816D116F8010F44F004042A280DD0CA
:102050006FF02F023078A0F13003092B09D807EB7D
:10206000870302EB4303C718761CF3E759F8047B98
:10207000761C30786C280FD006DC4C2817D06828E6
:102080000DD06A2814D104E0742810D07A280FD11A
:102090000DE044F400140AE044F4801401E044F438
:1020A00040147278824202D104F58014761C761CAA
:1020B000307866280BD013DC582877D009DC00284C
:1020C00075D04528F6D04628F4D047281AD19DE18E
:1020D00018E0632835D0642879D0652812D195E1BD
:1020E000702873D008DC6728F1D069286FD06E287B
:1020F0000DD06F2806D1B5E073282CD0752875D087
:10210000782874D05A46179990476D1C75E1C4F32E
:102110000250022809D003280DD0D9F80010042855
:102120000DD00D6009F1040967E1D9F80010EA1734
:10213000C1E90052F6E7D9F800100D80F2E70D7002
:10214000F0E719F8041B8DF8001000208DF801004D
:10215000EA46012003E059F804AB4FF0FF30610775
:102160004FF0000102D40DE008F101018846B942A8
:102170000FDA8045F8DB1AF808100029F4D108E0DE
:1021800008F1010188468142FADB1AF8081000299B
:10219000F6D105985B46A0EB080721463846179A0A
:1021A00000F094FA284400EB080507E04DE029E12F
:1021B0000DE01AF8010B5A4617999047B8F101083B
:1021C000F7D25B4621463846179A13E142E00A22CD
:1021D0000092C4F302524FF0000A022A08D059F8C4
:1021E00004CB032A4FEAEC710AD00DE029E02AE083
:1021F00009F1070121F00702F2E802C1914609E066
:102200000FFA8CFC4FEAEC71042A03D14FFA8CFCD4
:102210004FEAEC71002907DA0A460021DCF1000CD4
:1022200061EB02012D2202E0220504D52B228DF85C
:102230000420012203E0E20701D02022F7E79046C4
:1022400059E00A2102E010220DE010214FF0000AAF
:1022500000910BE010224FF0000A44F0040408271C
:10226000009203E008224FF0000A0092C4F30252E9
:10227000022A05D059F804CB0021032A08D009E02E
:1022800009F1070121F00702F2E802C1914605E0D9
:102290001FFA8CFC042A01D10CF0FF0C4FF000084F
:1022A000220728D5702806D0009B83F0100353EA3C
:1022B0000A0305D00EE040228DF80420012208E038
:1022C0005CEA010206D030228DF804208DF805006A
:1022D00002229046009B83F0080353EA0A030AD1C6
:1022E0005CEA010201D1620705D530228DF8042095
:1022F0004FF001087F1E582804D034A003900EA888
:1023000002900DE036A0F9E753466046009AFEF7CA
:10231000E5F984460398825C0298401E02900270A0
:102320005CEA0100F0D1029806A9081A00F1200A1F
:10233000600702D524F4803400E00127574502DD10
:10234000A7EB0A0000E0002000EB0A0100900598CE
:102350004144401A0590E00306D45B462146179A93
:10236000059800F0B3F90544002706E001A85A4695
:10237000C05D179990476D1C7F1C4745F6DBE00355
:102380000CD55B462146179A059800F09FF9054445
:1023900004E030205A46179990476D1C0099481E5A
:1023A00000900029F5DC08E0029802995A4600786E
:1023B000491C0291179990476D1CBAF10001AAF1CE
:1023C000010AF1DC65E100000928010030313233F7
:1023D0003435363738396162636465660000000061
:1023E000303132333435363738394142434445464B
:1023F0000000000000F058F90544761C30780028F1
:102400007FF4ECAD19B02846BDE8F08F620700D428
:10241000062709F1070222F0070CFCE80223E14637
:1024200003F000485FEA080C02D00FF2702C0DE0B8
:102430005FEA045C02D50FF2682C07E05FEAC47C17
:1024400002D00FF2602C01E0AFF2700C4FF0FF38B9
:1024500023F00043CDF850C065280CD006DC452899
:1024600009D046281DD047283DD13DE0662818D028
:1024700067287ED138E00021112F01DB112000E018
:10248000781CCDE9000106A90EA8FFF7DDFCDDE907
:102490000F010E9A03910021009207F1010A0491A5
:1024A0004DE04FF000400097CDE9011006A90EA8BD
:1024B000FFF7CAFCDDE90F0203920E9B119900227F
:1024C000DDF80CA00093049211B9791C00EB010A0D
:1024D000B7EB0A0004D4C0F1FF3007F1010A049001
:1024E000AAEB0700019044E0012F00DA0127002148
:1024F000112F01DD112000E03846CDE9000106A9C9
:102500000EA8FFF7A1FCDDE90F010E9A039100214F
:1025100004910092BA4621070CD40399514500DA80
:102520008A46BAF1010F05DD009AAAF10101515C5A
:10253000302908D0B84202DA10F1040F06DA01217E
:10254000CDE9011015E0AAF10101E9E7002805DC59
:10255000049901440491AAEB000102E0411C514599
:1025600000DD8A460499401A401C01904FF000405B
:102570000290200704D40198504501DBCDF8048077
:1025800000208DF84F0002980DF14F07B0F1004F79
:1025900025D02B200E9002984FF0020800280CDA6C
:1025A000404202902D200E9007E00A210298FEF78B
:1025B0007FF83031029007F8011DB8F10001A8F151
:1025C0000108F2DC02980028EFD1791E0E980870FD
:1025D000307800F0200040F0450007F8020D12A806
:1025E000C01B00F107081498007800B1012000EB2F
:1025F0000A01019801EBE07105984144401A401E20
:102600000590E00306D45B462146179A059800F032
:102610005DF805441498007818B15A461799904708
:102620006D1CE00324D55B462146179A059800F0FF
:102630004DF805441CE00498002807DBDDE90301A0
:10264000884203DD0098405C179901E0179930201B
:102650005A469047049805F10105401C04900198E2
:10266000401E019004D12E205A46179990476D1CA8
:10267000BAF10001AAF1010ADDDC05E017F8010B4F
:102680005A46179990476D1CB8F10001A8F101084E
:10269000F4DC5B462146179A0598ABE62D00000056
:1026A0002B000000200000002DE9F0410446002529
:1026B0001E461746880404D405E039462020B0475A
:1026C0006D1C641EF9D52846BDE8F0812DE9F04166
:1026D000044600251E469046C80301D5302700E079
:1026E0002027880404D505E041463846B0476D1CD4
:1026F000641EF9D52846BDE8F0810A68531C0B60BA
:10270000107070474FF0E021096921F004014FF08B
:10271000E0221161C21700EB5272C2F3C702074BED
:102720001A701946097801EB4102C2EBC1114FF64C
:10273000FF7202EAC101024A118070476E00002058
:102740007000002001460D4A12884A434FF0E023F2
:102750005A6100229A6101221A6100BF4FF0E02203
:10276000106900F001021AB100F48032002AF5D09D
:1027700000224FF0E0231A619A6170477000002038
:1027800001460D4A12784A434FF0E0235A61002275
:102790009A6101221A6100BF4FF0E022106900F037
:1027A00001021AB100F48032002AF5D000224FF065
:1027B000E0231A619A6170476E00002070B50446EC
:1027C0000D46E1B20548FFF706FB00BF4021034874
:1027D000FFF79EFA0028F9D0204670BD0044004063
:1027E00070B504460D46E0B240F080010020FEF7CF
:1027F0006FFDE8B240F040010020FEF769FD70BDBA
:102800001FB5FFF785F91820FFF77CFF4FF44070E4
:10281000FEF7D0FE0423E0226F491846FEF76EFC57
:1028200010231A466C490420FEF768FCFEF732FCC0
:102830003F20FEF7FFFC4FF41650FFF711FAFEF7AA
:1028400076FCFEF79DFCFEF78FFA4FF47A70FFF7E7
:1028500079FF00F0FDF86149086000F0F9F860497F
:10286000086000F0F5F85F490860B4E05E48008851
:10287000FDF79DFE04460D4600F0EAF85749096849
:10288000A0EB010A5046FDF792FE8046574A584B8E
:10289000FDF7A3FD064622462B46FDF7C1FE0CD2EE
:1028A00000F0D6F84D4908605248FEF7E1FFFEF708
:1028B00037F800F0CDF8494908604F480088FDF727
:1028C00076FE04460D4600F0C3F845490968A0EBC2
:1028D000010A5046FDF76BFE8046444A444BFDF723
:1028E0007CFD064622462B46FDF79AFE52D2FEF7A5
:1028F0005DFD424842A102684248FFF781FA01218A
:102900004020FFF76DFF3F48FEF7D6FC3E48FEF73C
:102910008DFF012834D13C48C01CFEF787FF0128F9
:102920002ED13A480068FDF768FE04460D46384847
:102930000068FDF762FE06460F4636480068FDF760
:102940005CFE804642460B4633A0CDE90067CDE9E8
:102950000245FFF745FA24480088FDF728FE0646A1
:102960000022334BFDF7ABFD04460B46314800789F
:10297000314909782246CDE9001030A0FFF730FA3E
:10298000FEF790F930490870FEF7AAFE00F060F8F3
:10299000134908602D480088FDF709FE04460D46DE
:1029A00000F056F80F490968A0EB010A5046FDF700
:1029B000FEFD06460D4A0E4BFDF70FFD80462246F2
:1029C0002B46FDF72DFE05D2FEF794FF00F040F8F0
:1029D0000449086000BF49E7000801402C000020BE
:1029E00030000020340000200A000020B30C71AC3D
:1029F0008BDB0540BA2A00080C00002028000020CC
:102A0000256400007800002018000020200000202D
:102A1000140000201000002025322E3266202532BE
:102A20002E32662025322E32662020200000000043
:102A300000408F40250000202400002025322E3247
:102A40006620256420256400380000200E00002048
:102A500001480068704700004800002070B5044637
:102A60004FF400411348FEF719F94FF48041114823
:102A7000FEF716F908251AE004F08000802804D13A
:102A8000C1010C48FEF70CF904E04FF480410948FD
:102A9000FEF704F94FF400410648FEF701F94FF440
:102AA00000410448FEF7FAF86006040E6D1E002D82
:102AB000E2D170BD001001402C102C06240030A281
:102AC000543A000000000000000000000000000078
:102AD00000000000483A0000000000000000000074
:102AE0000000000000000000540000000000000092
:102AF000000000000000000000000000413A00005B
:102B00004C61737420446174613A2000000000003D
:102B1000000000002C102C06240030A20000000051
:102B20000000005F00000007000700147F147F14FE
:102B3000242A7F2A12231308646236495522500042
:102B400005030000001C2241000041221C00140863
:102B50003E081408083E0808005030000008080825
:102B60000808006060000020100804023E5149453A
:102B70003E00427F400042615149462141454B3170
:102B80001814127F1027454545393C4A4949300100
:102B9000710905033649494936064949291E003657
:102BA00036000000563600000814224100141414A8
:102BB00014140041221408020151090632497941D6
:102BC0003E7E1111117E7F494949363E41414122E5
:102BD0007F4141221C7F494949417F090909013E42
:102BE0004149497A7F0808087F00417F4100204021
:102BF000413F017F081422417F404040407F020C4A
:102C0000027F7F0408107F3E4141413E7F09090950
:102C1000063E4151215E7F091929464649494931FD
:102C200001017F01013F4040403F1F2040201F3FE6
:102C30004038403F63140814630708700807615167
:102C4000494543007F4141000204081020004141F2
:102C50007F000402010204404040404000010204A1
:102C60000020545454787F48444438384444442025
:102C7000384444487F3854545418087E0901020CE3
:102C80005252523E7F0804047800447D40002040A8
:102C9000443D007F1028440000417F40007C041820
:102CA00004787C0804047838444444387C141414B0
:102CB00008081414187C7C08040408485454542050
:102CC000043F4440203C4040207C1C2040201C3CD1
:102CD0004030403C44281028440C5050503C446440
:102CE000544C44000836410000007F00000041368B
:102CF0000800100808100878464146781C2D000886
:102D00000000002078000000281E0008942D000814
:102D10007800002010040000381E000800A0000009
:102D2000000000000000E80364002C010000000027
:102D3000000000000000000000000000000002424F
:102D40000101000000000000000000000000000081
:102D5000000000000000000000A0000000000000D3
:102D60000000000000000000000000000000000063
:102D7000010203040102030406070809020406080D
:102D800000A00000000000000000000000000000A3
:042D9000000000003F
:04000005080000ED02
:00000001FF
