:020000040800F2
:100000007004002001010008B9130008250C000845
:10001000B5130008D5080008091C000800000000FE
:10002000000000000000000000000000551700085C
:10003000D708000800000000411400084518000817
:100040001B0100081B0100081B0100081B01000820
:100050001B0100081B0100081B0100081B01000810
:100060001B0100081B0100081B0100081B01000800
:100070001B0100081B0100081B0100081B010008F0
:100080001B0100081B0100081B0100081B010008E0
:100090001B0100081B0100081B010008D90800080B
:1000A0001B0100081B0100081B0100081B010008C0
:1000B0009D1800081B0100081B0100081B01000817
:1000C0001B0100081B0100081B0100081B010008A0
:1000D0001B0100081B010008A91A00081B010008E9
:1000E0001B0100081B0100081B010008DFF80CD0F1
:1000F00000F0CEFB00480047E9250008700400200E
:100100000648804706480047FEE7FEE7FEE7FEE7B1
:10011000FEE7FEE7FEE7FEE7FEE7FEE74918000818
:10012000ED00000840EA01039B0703D009E008C97D
:10013000121F08C0042AFAD203E011F8013B00F8AC
:10014000013B521EF9D27047421E12F8013F002BAC
:10015000FBD111F8013B02F8013B002BF9D17047AC
:10016000F0B480EA0102D40F4200B2EB410F02D298
:100170000246084611464A0042D0C30DDDB2C1F323
:10018000C752AD1A202D35DAC1F3160141F4000231
:1001900004B15242C5F1200602FA06F12A41104488
:1001A000B3EBD05F23D0C4B1012DA0EBC35009DC69
:1001B000F0BC4FF0004202EAC352DBB200F500008F
:1001C00000F0C9B9400000F1807000EBC350A0F10D
:1001D000807040EAD170490009E0490841EAC071E5
:1001E000A0EBC35000F50000400800EBC350F0BC8A
:1001F00000F0A8B96142012202EB4101001BF6E7C1
:10020000F0BC704781F00041AAE780F00040A7E70A
:1002100030B480EA010202F0004530F0004221F0E3
:10022000004013D090B1C30DD40DC2F31601C0F33A
:100230001600E41A41F4000140F400027D349142BA
:1002400001D3641C00E04900002C02DA30BC00201D
:1002500070474FF400000023914201D3891A0343F1
:1002600040084FEA4101F7D151B1914202D14FF01C
:10027000004105E002D24FF0010101E06FF0010101
:1002800003EBC450284430BC00F05CB92DE9FE4FAC
:10029000804681EA0300C00F0C46009021F0004127
:1002A00023F00045B8EB0200A94105D240462146A3
:1002B00090461C460B46024623F00040104347D0B0
:1002C000270DC7F30A00C3F30A510290401A0190A8
:1002D00040286BDAC3F3130040F4801B0098924669
:1002E00020B10023D2EB030A63EB0B0B01985946B4
:1002F000C0F14002504600F004F906460D46504653
:100300005946019A00F00CF910EB080061410024F5
:1003100087EA115284EAE7731A4340D0009A62B325
:10032000019A012A4FEA075215DC001B61EB02011A
:100330004FF0004202EA0752CDE90042001C41F5AD
:10034000801132462B4600F043F903B0BDE8F08F30
:1003500040462146F9E7001B61EB0201001C41F514
:10036000801300185B412018A2F5001747EB03012A
:1003700040EAD570B6196D4111E06D084FEA3606B6
:1003800045EAC0754FEA0752001B61EB0201001CF1
:1003900041F5801149084FEA3000001951413246B9
:1003A0002B4603B0BDE8F04F00F003B900980122DE
:1003B00040000023D0EB020263EBE073009821467B
:1003C0004FEAE074B8EB000061EB0401E9E783F069
:1003D00000435BE781F0004158E7C10F80EAE0701D
:1003E0000844CA079623002100F0B5B800F0004287
:1003F00030F000400AD0C10D01F56071C0F3160065
:1004000042EA0151C20840071143704700200146EB
:10041000704701F0004330B421F0004150EA01027E
:1004200006D00A0DA2F56072C1F31301002A02DCA6
:1004300030BC00207047440F44EAC104C100E018FA
:1004400030BC00EBC25000F07DB80000002801DB9A
:10045000C0F10040002901DBC1F100418142704739
:10046000002801DBC0F10040002901DBC1F100419F
:100470008842704730B50B460146002020220124F7
:1004800009E021FA02F59D4205D303FA02F5491B62
:1004900004FA02F52844151EA2F10102F1DC30BD78
:1004A0002DE9F05F0546002092469B4688460646A9
:1004B000814640241BE0284641464746224600F03C
:1004C000F9F953465A46C01A914110D311461846BD
:1004D000224600F016F82D1A67EB01084F46224617
:1004E0000120002100F00DF817EB00094E41201EFD
:1004F000A4F10104DFDC484631462A464346BDE804
:10050000F09F202A04DB203A00FA02F10020704715
:100510009140C2F1200320FA03F319439040704741
:10052000202A06DBCB17203A41FA02F043EAE073B7
:1005300006E041FA02F3D040C2F1200291400843A4
:10054000194670470029A8BF7047401C490008BFE2
:1005500020F00100704710B4B0FA80FC00FA0CF0F3
:1005600050EA010404BF10BC704749B1CCF120042B
:1005700021FA04F411FA0CF118BF012121430843B8
:10058000A3EB0C01CB1D4FEA00614FEA102042BFE4
:10059000002010BC704700EBC35010440029A4BFDA
:1005A00010BC7047401C490008BF20F0010010BC7F
:1005B000704710B5141E73F1000408DA401C41F1B5
:1005C000000192185B411A4301D120F0010010BDD7
:1005D0002DE9F04D92469B4611B1B1FA81F202E04D
:1005E000B0FA80F220329046FFF78BFF04460F46A8
:1005F00040EA0A0041EA0B0153465A46084313D029
:10060000114653EA010019D0C8F14002504600F0EB
:1006100051F905460E46504659464246FFF771FFCE
:10062000084305D0012004E020463946BDE8F08D9E
:100630000020054346EAE0762C4337430A986305D9
:10064000E40AA0EB08000022FD0A44EA47540A30FD
:1006500002D500200146E9E7010510196941DDE9ED
:10066000084500196941BDE8F04DA2E72DE9FE4FAC
:1006700081EA030404F0004421F0004100944FF0AB
:10068000000B23F0004350EA01045ED052EA030459
:100690005BD0C3F30A54C1F30A552C44A4F2F334DB
:1006A0000194A0FB0254C1F3130141F48011C3F380
:1006B000130343F4801301FB024400FB034E840A3E
:1006C000970A44EA815447EA8357A4FB07680295D6
:1006D0008D0A05FB07854FEA932C04FB0C54270574
:1006E000029D4FEA065847EA1637B5EB08056EEB50
:1006F000070C870E920E47EA811742EA8312A7FB86
:100700000201B6EB0B0164EB00042B0D43EA0C3342
:100710005E1844EB1C50DA465146E7FB0201C5F374
:1007200013044FEA0B3343EA14534FEA0432019C9B
:1007300043EA0603A4F10C040294009CCDE900B442
:10074000FFF746FF03B0BDE8F08F00200146F9E750
:100750002DE9F04D81EA030404F0004B21F000453F
:1007600014464FF0000A23F0004150EA050220D061
:1007700054EA01021DD0C5F30A570246C5F313031C
:10078000C1F31300C1F30A5640F4801543F48013FB
:10079000A7EB0608101BD64608F2FD3873EB0500E0
:1007A00002D308F1010801E092185B41B8F1000F93
:1007B00003DA00200146BDE8F08D00204FF48011DF
:1007C000064684460EE0171B73EB050705D3121B84
:1007D00063EB050306434CEA010C49084FEA30007D
:1007E00092185B4150EA0107EDD152EA030012D0A2
:1007F00082EA040083EA0501084305D0101BAB41DF
:1008000006D20122002306E000224FF0004302E05E
:100810006FF0010253101AEB06004CEB085110EB7D
:100820000A0041EB0B01BDE8F04DFFF7C2BEC1F37A
:100830000A52C1F3130140F2FF3341F480119A428E
:1008400002DA00200146704740F233439A42A2F296
:10085000334202DC524200F02DB8FFF752BE0000D6
:1008600030B5041E71F1000404DB4FF00044404237
:1008700064EB0101141E73F1000405DB1C464FF00C
:100880000043524263EB0403994208BF904230BDDB
:10089000064C074D06E0E06840F0010394E80700CD
:1008A00098471034AC42F6D3FFF724FCA429000883
:1008B000C4290008202A04DB203A21FA02F0002192
:1008C000704721FA02F3D040C2F120029140084360
:1008D00019467047704770472DE9F041402000F0FD
:1008E0008BF8C8B13A480068FFF780FD0646002241
:1008F000384BFFF7CBFC0446FFF78BFD344908600B
:10090000354933480068FFF7ABFD02D8324830491B
:100910000860402000F06AF8802000F06DF8A0B375
:100920002E4804780121880700F0F3FF16E02B48D9
:100930000078844212D01021294800F071F94FF458
:10094000C051274800F06CF900214FF0804000F0C2
:10095000E0FF802000F04AF8BDE8F08180212048C7
:1009600000F053F90028E2D01E48007808B90120B1
:1009700000E000201B49087000214FF0804000F08B
:10098000C8FF802000F032F800BF4FF4807000F004
:1009900033F8D0B10E480068FFF728FD0646002264
:1009A0000C4BFFF714FD0446FFF733FD08490860C0
:1009B0000D4907480068FFF749FD02D20A4804497B
:1009C00008604FF4807000F011F800BFC4E7000029
:1009D000100000200000E03F000020421500002031
:1009E00000080140140000200000A04101490860F7
:1009F0007047000014040140014600200022074B0C
:100A00001B6803EA0102054B14331B680B4013B14A
:100A10000AB1012000E000207047000000040140FE
:100A2000002123498279002A3AD00A4612680368D5
:100A30009A430B461A600A1D126803689A430B1DFD
:100A40001A60027911440A6803681A430A60184A56
:100A50000832126803689A43154B08331A601A1D4E
:100A6000126803689A43124B0C331A604279102AB9
:100A70000ED11A1F126803681A430D4B08331A600F
:100A80001A1D126803681A43094B0C331A600DE0F3
:100A90000749427911440A6803681A430A6005E06D
:100AA000027911440A6803689A430A60704700009B
:100AB0000004014030B500228B071C0F0F2303FAFE
:100AC00004F20B4B8C1053F824309343084C8D10D8
:100AD00044F8253023468C1053F824308C07240F1B
:100AE00000FA04F42343024C8D1044F8253030BD45
:100AF000080001402DE9F0410246002500260020B3
:100B000000230024002791F803C00CF00F0591F892
:100B100003C00CF0100CBCF1000F03D091F802C020
:100B20004CEA050591F800C0BCF1000F31D0146803
:100B300000202BE04FF0010C0CFA00F3B1F800C0DC
:100B40000CEA03069E4220D183004FF00F0C0CFAF2
:100B500003F7BC4305FA03FC4CEA040491F803C014
:100B6000BCF1280F06D14FF0010C0CFA00FCC2F8C2
:100B700014C00AE091F803C0BCF1480F05D14FF052
:100B8000010C0CFA00FCC2F810C0401C0828D1D39C
:100B90001460B1F800C0BCF1FF0F34DD54680020D0
:100BA0002EE000F1080C4FF0010808FA0CF3B1F840
:100BB00000C00CEA03069E4221D183004FF00F0CC7
:100BC0000CFA03F7BC4305FA03FC4CEA040491F861
:100BD00003C0BCF1280F05D100F1080C08FA0CF88D
:100BE000C2F8148091F803C0BCF1480F07D100F19E
:100BF000080C4FF0010808FA0CF8C2F81080401CED
:100C00000828CED35460BDE8F081024600209368E6
:100C10000B400BB1012000E000207047416170479C
:100C20000161704700BFFEE710B500200F49086062
:100C30000F48006820F070400D49086008460068C1
:100C400040F04050086000200A49C1F89C01022091
:100C500001F09CFC012005490860022001F096FC8F
:100C600000200449C1F8980110BD0000988121427C
:100C7000000C01400080214208B50D48806940F019
:100C800008000B498861C020ADF8000010208DF8E5
:100C9000030003208DF8020069460648FFF72AFF8B
:100CA0000120054908600549C1F89C0108BD000004
:100CB00000100240000C0140988121420080214236
:100CC00010B500200F4908600F48006820F0704000
:100CD0000D4908600846006840F040500860012057
:100CE0000A49C1F89C01022001F050FC012005498D
:100CF0000860022001F04AFC00200449C1F8980174
:100D000010BD000098812142000C0140008021426A
:100D10002DE9F04104460F4615461E4600F09AF8AC
:100D2000204600F067F800BF00F0E2F80028FBD191
:100D3000384600F05FF800BF00F0DAF80028FBD179
:100D400000F088F844F0010000F054F800BF00F013
:100D5000CFF80028FBD10DE0012D04D1012000F0D7
:100D600011F8307003E0002000F00CF83070681EBD
:100D7000C5B2761C002DEFD100F094F80020BDE83C
:100D8000F081000070B50546002600241648006872
:100D900020F07040144908600846006840F00040A8
:100DA000086000BF15E0002010490860022001F033
:100DB000EDFB01200E49C1F89801022001F0E6FB8D
:100DC0006006040E09487C38006808B1601CC4B293
:100DD000761C082EE7DB15B9FFF726FF01E0FFF7C9
:100DE0006FFF204670BD0000000C01409881214239
:100DF0000080214270B5044600251348006820F0A9
:100E00007040114908600846006840F04050086092
:100E100000200E49086000BF13E0E0090B49091DDE
:100E200008606006040E022001F0B0FB01200849B2
:100E3000C1F89801022001F0A9FB002003490860D5
:100E40006D1C082DE9DB70BD000C0140988121422A
:100E50000080214210B51048006820F070400E4913
:100E600008600846006840F04050086001200B49C7
:100E700008600B49C1F89C01042001F087FB0020A9
:100E80000649091D0860042001F080FB0020044988
:100E9000C1F8980110BD0000000C0140988121426A
:100EA0000080214210B50F48006820F070400D49C5
:100EB00008600846006840F04050086000200A4979
:100EC00008600A49C1F89C01042001F05FFB012081
:100ED0000549091D08600549C1F89801042001F081
:100EE00055FB10BD000C0140988121420080214239
:100EF00010B500241448006820F0704012490860C2
:100F00000846006840F00040086001200F49086072
:100F100001F03CFB01200E49C1F8980101F036FBBD
:100F200007E0601CC4B2FA2C03DDFFF7BBFF012011
:100F300010BD0648803800680028F2D10349091F17
:100F4000086000BFF4E70000000C01409C812142D2
:100F50000080214270B504460D461646FFF77AFF21
:100F60002046FFF747FFFFF7C3FF18B1FFF79AFFCF
:100F7000012070BD2846FFF73DFFFFF7B9FF18B10C
:100F8000FFF790FF0120F4E73046FFF733FFFFF74C
:100F9000AFFF18B1FFF786FF0120EAE7FFF782FFF6
:100FA000022001F0D5FA0020E3E700001FB501217F
:100FB000052000F057FA4FF4E070ADF8000048202B
:100FC0008DF8030069461248FFF794FD0F210020B9
:100FD000FFF770FD4FF4E070019000208DF80800DD
:100FE0000C208DF8090001208DF80A0001A8FFF7F8
:100FF00017FD17208DF80C0002208DF80D008DF8DC
:101000000E0001208DF80F0003A800F0D7F91FBDD6
:1010100000080140F8B507460D4614461E4601215A
:10102000384600F01FFAADF8004003208DF80200AA
:101030008DF8036069462846FFF75CFD2146284687
:10104000FFF7EEFDF8BD1FB50121084600F0FAF9E3
:101050004720ADF8000040F2E730ADF80400002072
:10106000ADF8020069464FF0804000F079FC0122A3
:101070001146900700F06AFC1C208DF80C0001203E
:101080008DF80D008DF80E008DF80F0003A800F00C
:1010900095F91FBD70B505460021012000F074F8D8
:1010A00000240AE0A5F1200000EB8000064A10446D
:1010B000015D012000F068F8641C052CF2D30021CA
:1010C000012000F061F870BDC227000810B50024AF
:1010D00004E00021012000F057F8641CB4F5FC7F07
:1010E000F7D30021084601F06FFA10BD10B5044691
:1010F00000F06AF801211C48FFF792FD02211A480E
:10110000FFF78EFD4FF400511848FFF789FD4FF4AB
:1011100000411648FFF784FD4FF480411348FFF764
:101120007FFD01211048FFF779FD01210E48FFF7EF
:1011300077FD2121002000F027F804F18000C1B2E2
:10114000002000F021F80421002000F01DF81021FB
:10115000002000F019F82021002000F015F80C21E3
:10116000002000F011F810BD000C014000100140FB
:1011700010B5044603E014F8010BFFF78BFF20784D
:101180000028F8D110BD000070B505460C462DB101
:101190004FF400510A48FFF743FD04E04FF40051BB
:1011A0000748FFF73BFD02210648FFF737FD2046C1
:1011B00001F0B2FA02210348FFF732FD70BD0000D2
:1011C00000100140000C014008B50121182000F07A
:1011D00049F90120ADF8000003208DF8020010202D
:1011E0008DF8030069461D48FFF784FC0220ADF826
:1011F000000003208DF8020010208DF803006946DE
:101200001648FFF777FC4FF40050ADF800000320BC
:101210008DF8020010208DF8030069461048FFF792
:1012200069FC4FF48040ADF8000003208DF8020007
:1012300010208DF8030069460948FFF75BFC4FF466
:101240000040ADF8000003208DF8020010208DF85A
:10125000030069460248FFF74DFC08BD000C014041
:101260000010014030B591B014223F490CA8FEF7A0
:1012700059FF14223C49143107A8FEF753FF1422EA
:101280003949283102A8FEF74DFF37483C30006845
:101290000190FFF71BFF00210D2001F095F933A00D
:1012A000FFF766FF34480068FFF7A0F804462246BF
:1012B0000B4632A1334800F0A9FC32490CA8FEF7D6
:1012C00043FF0121002001F07FF90CA8FFF750FF38
:1012D0002D480068FFF78AF8044622460B462BA1EA
:1012E000284800F093FC274907A8FEF72DFF0221AC
:1012F000002001F069F907A8FFF73AFF25480078B8
:10130000012804D124A102A8FEF71EFF03E023A1B7
:1013100002A8FEF719FF22480068FFF767F80446A5
:1013200022460B461FA1174800F070FC154902A881
:10133000FEF70AFF0321002001F046F902A8FFF79B
:1013400017FF1A4802781AA10E4800F05FFC0D49F9
:1013500001A8FEF7F9FE0421002001F035F901A8EB
:10136000FFF706FF11B030BD7C270008424C455FF7
:1013700053485433310000001800002025342E3229
:1013800066430000640000201C00002025342E323B
:1013900066252500150000203E0000003C000000EE
:1013A0001000002025342E31663F0000140000207C
:1013B0002564000000BFFEE77047000070B5002103
:1013C00000230F22C47804B3154C246804F4E064AD
:1013D000C4F5E064210AC1F10403CA40447804FA68
:1013E00003F184781440214309010E4C0678A1557D
:1013F000047804F01F050124AC4005786D11AD00A0
:1014000005F1E025C5F8004109E0047804F01F0566
:101410000124AC40044D0678761145F8264070BD95
:101420000CED00E000E400E080E100E0024901434F
:10143000024A1160704700000000FA050CED00E060
:101440007047000029B1064AD2690243044BDA61B1
:1014500004E0034AD2698243014BDA61704700001D
:101460000010024029B1064A92690243044B9A6176
:1014700004E0034A92698243014B9A61704700007D
:101480000010024030B500210022002400232D4D21
:101490006D6805F00C0121B1042905D0082923D17C
:1014A00005E0294D056022E0274D05601FE0254D30
:1014B0006D6805F47012234D6D6805F480340225C3
:1014C00005EB92421CB9214D554305600BE01D4DC3
:1014D0006D6805F400351DB11C4D5543056002E0F3
:1014E000194D5543056002E0174D056000BF00BF70
:1014F000144D6D6805F0F0010909154D6B5C056828
:10150000DD4045600F4D6D6805F4E061090A104D3E
:101510006B5C4568DD4085600A4D6D6805F460517F
:10152000C90A0B4D6B5C4568DD40C560054D6D68B3
:1015300005F44041890B074D6B5CC568B5FBF3F5BD
:10154000056130BD0010024000127A0000093D0024
:10155000400000205000002070B5044662782178D9
:101560008820FFF7F7FC4FF4967000F0F1FF164B60
:10157000062200218820FFF7CBFB13494978124A45
:10158000127841EA0221AF2201FB02F0FEF725FFAB
:1015900006460E49FEF73CFE05460D49FEF732FEB3
:1015A0000C49086008490979074AD27841EA0221C2
:1015B000642201FB02F0FEF710FF05460349FEF727
:1015C00027FE0549086070BD2000002000FF7F470E
:1015D00000003442180000201C00002010B55348C1
:1015E000007801287ED152480078012846D1514820
:1015F000016851480068FEF733FF2ED84F48007845
:1016000098B90521142000F0DFFF4DA0FFF7B0FDD1
:1016100010214D48FFF702FB4FF4C0514A48FFF735
:10162000FDFA0120454908707EE044480078012811
:101630007AD10521142000F0C7FF44A0FFF798FDE0
:1016400010214148FFF7ECFA4FF4C0513E48FFF734
:10165000E7FA00203949087066E0364801683648E4
:101660000068FEF7F3FE5FD210213748FFF7D8FA83
:101670004FF4C0513448FFF7D3FA55E02C480078B6
:10168000002851D12B4801682B480068FEF7DEFE88
:1016900030D22A48007898B90521142000F094FF30
:1016A00027A0FFF765FD10212748FFF7B7FA4FF491
:1016B000C0512548FFF7B2FA01202049087033E0F5
:1016C0001E48007801282FD10521142000F07CFF4E
:1016D0001EA0FFF74DFD10211B48FFF7A1FA4FF4A4
:1016E000C05100E017E01848FFF79AFA00201349AC
:1016F000087019E00F4801680F480068FEF7B0FE57
:1017000012D210211048FFF78BFA4FF4C0510E4847
:10171000FFF786FA08E010210B48FFF781FA4FF433
:10172000C0510948FFF77CFA10BD000014000020EA
:1017300015000020100000201800002026000020C6
:101740003C414C4552543E00000801405F5F5F5FE2
:101750005F5F5F00704710B500F002F810BD000039
:101760000CB50020019000903448006840F48030AF
:101770003249086000BF3148006800F40030009032
:101780000198401C0190009818B90198B0F5A06F1D
:10179000F1D12A48006800F4003010B10120009017
:1017A00001E0002000900098012844D124480068FE
:1017B00040F01000224908600846006820F003004D
:1017C00008600846006840F0020008601B48406856
:1017D0001A4948600846406848600846406840F436
:1017E000806048600846406820F47C1048600846E5
:1017F000406840F4E81048600846006840F0807097
:10180000086000BF0D48006800F000700028F9D0A3
:101810000A48406820F003000849486008464068CC
:1018200040F00200486000BF0448406800F00C002F
:101830000828F9D101E000BFFEE70CBD001002400E
:10184000002002407047000010B51148006840F0C9
:1018500001000F490860084640680E4908400C49DD
:101860004860084600680C49084009490860084675
:10187000006820F4802008600846406820F4FE00DC
:1018800048604FF41F008860FFF765FF10BD00003F
:10189000001002400000FFF8FFFFF6FE10B5012126
:1018A000880700F042F840B314480068401C134910
:1018B0000860B0F5FA6F1CD91148007808B901200A
:1018C00000E000200E4908700E48006838B9202159
:1018D0000D48FFF7A3F901200A49086006E020211E
:1018E0000948FFF79DF900200649086000200349D8
:1018F00008600121880700F009F810BD3C000020B5
:101900001500002038000020000C0140CA4302826C
:10191000704721B1028842F00102028004E002888F
:1019200040F2FE331A400280704730B50246002074
:1019300000230024158A05EA0103958905EA0104BC
:1019400013B10CB1012000E0002030BD1AB1838931
:101950000B43838102E083898B43838170470000BE
:10196000028802F08F020280CA884B881A430388DB
:101970001A4302808A8882850A880285054A904235
:1019800002D0054A904201D10A7A0286012282825F
:1019900070470000002C01400034014010B586B0B3
:1019A000044601210520FFF75DFD01218803FFF7B3
:1019B00059FD4FF40070ADF8140018208DF8170091
:1019C00003208DF8160005A91448FFF793F84FF48B
:1019D0008060ADF8140004208DF8170005A90F48A9
:1019E000FFF788F801940020ADF80800ADF80A0070
:1019F000ADF80C00ADF810000C20ADF80E0001A9F8
:101A0000074800F0ADF82021054800F093F80121C7
:101A1000034800F098F806B010BD0000000801402F
:101A20000038014010B586B0044601210520FFF7BB
:101A300019FD01214804FFF705FD0420ADF814004D
:101A400018208DF8170003208DF8160005A91448FA
:101A5000FFF750F80820ADF8140004208DF81700A7
:101A600005A90F48FFF746F801940020ADF80800DB
:101A7000ADF80A00ADF80C00ADF810000C20ADF880
:101A80000E0001A9074800F06BF82021054800F07E
:101A900051F80121034800F056F806B010BD0000CF
:101AA00000080140004400407047000010B586B0B7
:101AB000044601210920FFF7D5FC01218804FFF726
:101AC000C1FC4FF48060ADF8140018208DF81700A9
:101AD00003208DF8160005A91448FFF70BF84FF402
:101AE0000060ADF8140004208DF8170005A90F4818
:101AF000FFF700F801940020ADF80800ADF80A00E7
:101B0000ADF80C00ADF810000C20ADF80E0001A9E6
:101B1000074800F025F82021054800F00BF80121C6
:101B2000034800F010F806B010BD0000000C0140A2
:101B30000048004001F40072B2F5007F00D100BF00
:101B4000CA430280704721B1828942F400528281E7
:101B500004E082894DF6FF731A40828170470000CD
:101B60002DE9F04786B005460E460024A24600BF88
:101B700000BF0027B08900B100BF2F462C8A4CF669
:101B8000FF700440F08804432C82AC894EF6F310B9
:101B90000440B08831890843718908430443AC810B
:101BA000AC8A4FF6FF400440B0890443AC8201A8E0
:101BB000FFF768FC1148874202D1DDF810A001E070
:101BC000DDF80CA00AEBCA0000EB0A1031688900AE
:101BD000B0FBF1F86420B8FBF0F0040120096421A7
:101BE00001FB1089322000EB0910B0FBF1F000F08E
:101BF0000F0004432C8106B0BDE8F0870038014097
:101C0000C1F3080282807047704700000FB4084B90
:101C100010B504A902AA039800F0DEF8044602A950
:101C2000002000F070FC204610BC5DF814FB0000A2
:101C30000725000802E008C8121F08C1002AFAD1CF
:101C400070477047002001E001C1121F002AFBD13C
:101C5000704700002DE9FF5F82B00021DDE904300C
:101C6000020DDDF840B0034318D044F61050A2F244
:101C7000FF3242431514119801281FD0A5EB0B0029
:101C8000401C5FEA000A4FF000064E4FDFF8389123
:101C9000B046504615D5CAF1000413E0119801244E
:101CA0004AA3012801D16FEA0B010298119AC0E9F9
:101CB0000031C0E9024206B0BDE8F09FCBF1000060
:101CC000DFE704460021404A491842EB0450CDE9C1
:101CD000001012E0E00707D032463B464046494636
:101CE000FEF7C4FC8046894632463B4610461946FC
:101CF000FEF7BCFC06460F466410002CEAD1DDE975
:101D00000401DDE90023BAF1000F06DAFEF7AEFCAC
:101D100042464B46FEF7AAFC05E0FEF719FD424697
:101D20004B46FEF715FD04460E460022284BFEF7F3
:101D300097FD03D84FF0FF30014607E00022254B06
:101D400020463146FEF7A2FAFEF771FD102409E0A5
:101D5000002C0ADB0A220023FEF7A2FB039B303291
:101D60001A55641E50EA0102F2D1641C039AC4F1B0
:101D700011031444119A012A03D0012208430DD102
:101D80000AE0084304D000204FF0110B119072E7D5
:101D9000A3EB0B056D1E0DE05B4504DD4FF000026B
:101DA00005F1010504E003DA4FF00002A5F1010599
:101DB000002AECD002981199C0E90231C0E900452F
:101DC00079E70000000014400000F03F3000000000
:101DD0000000F0430000E03F2DE9FF4F95B09B4627
:101DE0008946064600250FE2252877D1002427469C
:101DF000F84A0121059400E0044316F8013F203B16
:101E000001FA03F01042F7D130782A2811D06FF090
:101E10002F033078A0F13002092A16D8059A44F031
:101E2000020402EB820203EB42021044761C05908E
:101E3000EFE759F8042B0592002A03DA504244F4E4
:101E40000054059044F00204761C30782E2816D1F8
:101E500016F8010F44F004042A280DD06FF02F0269
:101E60003078A0F13003092B09D807EB870302EB88
:101E70004303C718761CF3E759F8047B761C3078C7
:101E80006C280FD006DC4C2817D068280DD06A28A3
:101E900014D104E0742810D07A280FD10DE044F456
:101EA00000140AE044F4801401E044F44014727811
:101EB000824202D104F58014761C761C30786628A4
:101EC0000BD013DC582877D009DC002875D04528C2
:101ED000F6D04628F4D047281AD19DE118E06328AF
:101EE00035D0642879D0652812D195E1702873D057
:101EF00008DC6728F1D069286FD06E280DD06F28D4
:101F000006D1B5E073282CD0752875D0782874D008
:101F10005A46179990476D1C75E1C4F30250022888
:101F200009D003280DD0D9F8001004280DD00D6079
:101F300009F1040967E1D9F80010EA17C1E9005274
:101F4000F6E7D9F800100D80F2E70D70F0E719F808
:101F5000041B8DF8001000208DF80100EA460120D6
:101F600003E059F804AB4FF0FF3061074FF0000178
:101F700002D40DE008F101018846B9420FDA80452C
:101F8000F8DB1AF808100029F4D108E008F1010183
:101F900088468142FADB1AF808100029F6D1059824
:101FA0005B46A0EB080721463846179A00F094FAE2
:101FB000284400EB080507E04DE029E10DE01AF8A0
:101FC000010B5A4617999047B8F10108F7D25B46C2
:101FD00021463846179A13E142E00A220092C4F3E0
:101FE00002524FF0000A022A08D059F804CB032A03
:101FF0004FEAEC710AD00DE029E02AE009F107016F
:1020000021F00702F2E802C1914609E00FFA8CFCC8
:102010004FEAEC71042A03D14FFA8CFC4FEAEC71C1
:10202000002907DA0A460021DCF1000C61EB02010D
:102030002D2202E0220504D52B228DF80420012256
:1020400003E0E20701D02022F7E7904659E00A2199
:1020500002E010220DE010214FF0000A00910BE089
:1020600010224FF0000A44F004040827009203E015
:1020700008224FF0000A0092C4F30252022A05D04F
:1020800059F804CB0021032A08D009E009F107011F
:1020900021F00702F2E802C1914605E01FFA8CFC2C
:1020A000042A01D10CF0FF0C4FF00008220728D5BC
:1020B000702806D0009B83F0100353EA0A0305D072
:1020C0000EE040228DF80420012208E05CEA0102C3
:1020D00006D030228DF804208DF8050002229046AB
:1020E000009B83F0080353EA0A030AD15CEA010269
:1020F00001D1620705D530228DF804204FF0010888
:102100007F1E582804D034A003900EA802900DE042
:1021100036A0F9E753466046009AFEF7C1F98446B7
:102120000398825C0298401E029002705CEA0100F3
:10213000F0D1029806A9081A00F1200A600702D51A
:1021400024F4803400E00127574502DDA7EB0A00A4
:1021500000E0002000EB0A01009005984144401A7D
:102160000590E00306D45B462146179A059800F0D7
:10217000B3F90544002706E001A85A46C05D179947
:1021800090476D1C7F1C4745F6DBE0030CD55B4692
:102190002146179A059800F09FF9054404E0302085
:1021A0005A46179990476D1C0099481E00900029C7
:1021B000F5DC08E0029802995A460078491C029121
:1021C000179990476D1CBAF10001AAF1010AF1DCE0
:1021D00065E10000092801003031323334353637EB
:1021E0003839616263646566000000003031323363
:1021F0003435363738394142434445460000000003
:1022000000F058F90544761C307800287FF4ECADD6
:1022100019B02846BDE8F08F620700D4062709F1FF
:10222000070222F0070CFCE80223E14603F0004815
:102230005FEA080C02D00FF2702C0DE05FEA045C3C
:1022400002D50FF2682C07E05FEAC47C02D00FF2DF
:10225000602C01E0AFF2700C4FF0FF3823F0004328
:10226000CDF850C065280CD006DC452809D046289A
:102270001DD047283DD13DE0662818D067287ED183
:1022800038E00021112F01DB112000E0781CCDE99E
:10229000000106A90EA8FFF7DDFCDDE90F010E9A8B
:1022A00003910021009207F1010A04914DE04FF0E3
:1022B00000400097CDE9011006A90EA8FFF7CAFC5F
:1022C000DDE90F0203920E9B11990022DDF80CA0AC
:1022D0000093049211B9791C00EB010AB7EB0A00D4
:1022E00004D4C0F1FF3007F1010A0490AAEB070003
:1022F000019044E0012F00DA01270021112F01DDB8
:10230000112000E03846CDE9000106A90EA8FFF72C
:10231000A1FCDDE90F010E9A0391002104910092C6
:10232000BA4621070CD40399514500DA8A46BAF11E
:10233000010F05DD009AAAF10101515C302908D096
:10234000B84202DA10F1040F06DA0121CDE90110DA
:1023500015E0AAF10101E9E7002805DC0499014430
:102360000491AAEB000102E0411C514500DD8A46C0
:102370000499401A401C01904FF000400290200741
:1023800004D40198504501DBCDF8048000208DF87D
:102390004F0002980DF14F07B0F1004F25D02B20D0
:1023A0000E9002984FF0020800280CDA404202908A
:1023B0002D200E9007E00A210298FEF75BF83031DD
:1023C000029007F8011DB8F10001A8F10108F2DC44
:1023D00002980028EFD1791E0E980870307800F02E
:1023E000200040F0450007F8020D12A8C01B00F1C4
:1023F00007081498007800B1012000EB0A01019849
:1024000001EBE07105984144401A401E0590E0033D
:1024100006D45B462146179A059800F05DF80544FE
:102420001498007818B15A46179990476D1CE0032C
:1024300024D55B462146179A059800F04DF80544CF
:102440001CE00498002807DBDDE90301884203DD76
:102450000098405C179901E0179930205A46904740
:10246000049805F10105401C04900198401E01905C
:1024700004D12E205A46179990476D1CBAF10001DD
:10248000AAF1010ADDDC05E017F8010B5A4617999D
:1024900090476D1CB8F10001A8F10108F4DC5B461F
:1024A0002146179A0598ABE62D0000002B0000008E
:1024B000200000002DE9F041044600251E46174685
:1024C000880404D405E039462020B0476D1C641E02
:1024D000F9D52846BDE8F0812DE9F04104460025F4
:1024E0001E469046C80301D5302700E02027880407
:1024F00004D505E041463846B0476D1C641EF9D549
:102500002846BDE8F0810A68531C0B6010707047C4
:102510004FF0E021096921F004014FF0E022116140
:10252000C21700EB5272C2F3C702074B1A7019466A
:10253000097801EB4102C2EBC1114FF6FF7202EACA
:10254000C101024A118070475E0000206000002037
:1025500001460D4A12884A434FF0E0235A61002297
:102560009A6101221A6100BF4FF0E022106900F069
:1025700001021AB100F48032002AF5D000224FF097
:10258000E0231A619A6170476000002001460D4AFD
:1025900012784A434FF0E0235A6100229A610122E7
:1025A0001A6100BF4FF0E022106900F001021AB179
:1025B00000F48032002AF5D000224FF0E0231A61A7
:1025C0009A6170475E00002070B504460D46E0B287
:1025D00040F080010020FEF7D7FDE8B240F0400156
:1025E0000020FEF7D1FD70BDFFF72EF941480068CD
:1025F0004FF47A72B0FBF2F1B1F1807F00D31DE0AD
:1026000021F07F40401E4FF0E022506150170F2212
:10261000002807DA13071D0E374B00F00F04241FA4
:102620001D5503E013071C0E344B1C5400BF002043
:102630004FF0E02290610720106100BF4820FFF7B3
:1026400067FF4FF44070FEF7F1FE10234FF4C052C5
:102650002B490420FEF7DEFC102320222949082004
:10266000FEF7D8FC10231A4625490420FEF7D2FCB9
:1026700004234FF4E07222491846FEF7CBFCFEF724
:1026800095FC2020FEF732FD4FF41650FFF7CAF9F3
:102690004FF41650FFF782F94FF41650FFF706FA81
:1026A000FEF7D1FCFEF7E8FA4FF47A70FFF750FF1F
:1026B0001FE01548FEF750FFFEF7D4FDFEF78EFF32
:1026C000124913480068FDF7CBFE04D201211148DE
:1026D000FFF796FA09E00D490D480068FDF7B6FED0
:1026E00003D200210B48FFF78BFA4FF49670FFF7E7
:1026F0002FFFDEE70000002018ED00E000E400E01E
:1027000000080140000C0140762700080000A042AC
:102710001C0000200038014070B504464FF4004111
:102720001348FEF77BFA4FF480411148FEF778FA20
:1027300008251AE004F08000802804D1C1010C486B
:10274000FEF76EFA04E04FF480410948FEF766FA9E
:102750004FF400410648FEF763FA4FF40041044885
:10276000FEF75CFA6006040E6D1E002DE2D170BD0E
:10277000001001402C102C062400000054656D70E0
:10278000203A0000000000000000000000000000EF
:1027900048756D69643A0000000000000000000008
:1027A000000000005748454E205400000000000083
:1027B0000000000000000000413A00002C102C0630
:1027C0002400000000000000005F00000007000778
:1027D00000147F147F14242A7F2A122313086462B2
:1027E00036495522500005030000001C224100001C
:1027F00041221C0014083E081408083E0808005036
:102800003000000808080808006060000020100878
:1028100004023E5149453E00427F40004261514919
:10282000462141454B311814127F10274545453943
:102830003C4A494930017109050336494949360680
:102840004949291E0036360000005636000008149B
:1028500022410014141414140041221408020151DE
:102860000906324979413E7E1111117E7F4949495D
:10287000363E414141227F4141221C7F4949494125
:102880007F090909013E4149497A7F0808087F000C
:10289000417F41002040413F017F081422417F4099
:1028A0004040407F020C027F7F0408107F3E414180
:1028B000413E7F090909063E4151215E7F091929E0
:1028C00046464949493101017F01013F4040403FAF
:1028D0001F2040201F3F4038403F63140814630707
:1028E000087008076151494543007F4141000204D7
:1028F0000810200041417F000402010204404040D2
:102900004040000102040020545454787F4844445D
:10291000383844444420384444487F385454541888
:10292000087E0901020C5252523E7F0804047800CE
:10293000447D40002040443D007F10284400004179
:102940007F40007C041804787C08040478384444F0
:1029500044387C14141408081414187C7C080404EB
:10296000084854545420043F4440203C4040207CBC
:102970001C2040201C3C4030403C44281028440C83
:102980005050503C4464544C440008364100000010
:102990007F00000041360800100808100878464102
:1029A00046780000C42900080000002064000000F0
:1029B000341C0008282A0008640000200C040000D1
:1029C000441C000800A24A0400A00000000000000F
:1029D000000000000000F0410101000000000000C4
:1029E00000000000000000000000000000A0000047
:1029F00000000000000000000000000000000000D7
:102A000000000000000000000102030401020304B2
:102A1000060708090204060800A0000000000000E4
:082A20000000000000000000AE
:04000005080000ED02
:00000001FF
