:020000040800F2
:10000000A0070020E50100083B170008B71300080F
:10001000371700089312000865210008000000004F
:1000200000000000000000000000000005190008AA
:100030009F12000800000000AD170008191A000800
:10004000FF010008FF010008FF010008FF01000890
:10005000FF010008FF010008FF010008FF01000880
:10006000FF010008FF010008FF010008FF01000870
:10007000FF010008FF010008FF010008FF01000860
:10008000FF010008FF010008FF010008FF01000850
:10009000FF010008FF010008FF010008FF01000840
:1000A000FF010008FF010008FF010008FF01000830
:1000B000FF010008FF010008FF010008FF01000820
:1000C000FF010008FF010008FF010008FF01000810
:1000D000FF010008ED1A00089D1B0008511C0008D4
:1000E000FF010008FF010008FF010008FF010008F0
:1000F000FF010008FF010008FF010008FF010008E0
:10010000FF010008FF010008FF010008FF010008CF
:100110007D1A0008B91A0008FF010008FF01000855
:10012000FF010008FF010008FF010008FF010008AF
:1001300000F002F800F047F80AA090E8000C8244B2
:100140008344AAF10107DA4501D100F03CF8AFF28F
:10015000090EBAE80F0013F0010F18BFFB1A43F0A5
:10016000010318472031000040310000103A24BF3D
:1001700078C878C1FAD8520724BF30C830C144BF0C
:1001800004680C607047000000230024002500264E
:10019000103A28BF78C1FBD8520728BF30C148BFEA
:1001A0000B607047662902F0A083002070471FB5DE
:1001B00000F016FB04000020002102F051F9E0607D
:1001C0001FBD10B510BD00F027FC1146FFF7EFFF73
:1001D00002F060F800F045FC03B4FFF7F2FF03BC47
:1001E00000F088FC0948804709480047FEE7FEE721
:1001F000FEE7FEE7FEE7FEE7FEE7FEE7FEE7FEE7D7
:1002000004480549054A064B704700001D1A0008BE
:1002100031010008A0010020A0070020A003002059
:10022000A00300200FB4044910B503AA029800F0FF
:10023000C5FA10BC5DF814FB0400002070B504463C
:1002400085690068C10601D5302600E02026C00778
:1002500007D070BDD4E9012130469047206A401C88
:1002600020626D1EF6D570BD70B5044685690078B4
:10027000C00707D170BDD4E9012120209047206A32
:10028000401C20626D1EF6D570BD2DE9F0474FF081
:10029000000A89460446C0F820A02046E168884745
:1002A000002876D0252806D0D4E901219047206A7D
:1002B000401C2062F1E7E168204600258847C4F829
:1002C0001CA006460027C4F818A02A2E09D03046E4
:1002D00001F05EFF38B304EB8708303EC8F81860C1
:1002E00019E059F8041B204604EB87029161E1688C
:1002F0008847012F064618D1E069002820DA25F04A
:1003000020051DE0D8F8180000EB800006EB400047
:100310003038C8F818002046E1688847064601F0E2
:1003200037FF0028EED1012F0AD02E2E08D120460B
:10033000E16888477F1C0646022F45F02005C4DB94
:10034000A069002803DA404245F00105A061E807F2
:1003500001D025F01005B6B1A6F14100192802D848
:10036000203645F400654A463146204625604D4614
:10037000FFF718FF58B1012806D0ED1D25F0070042
:1003800000F1080989E704E005F1040985E7304632
:100390008AE7206ABDE8F08770477047704770476A
:1003A0002DE9FF4F0C461E464FF0FF378BB0D2E9C8
:1003B0000001DDF860800A908A46C1F30A5505B94C
:1003C0003D46002108464FF00000BAF1000F00F44E
:1003D000400005DA00EB80004FF4400101EA5000D4
:1003E0004FEA9059B9F1010F00DDB9460A9850EA79
:1003F0004A000ED044F61050A5F2FF3545432F14A5
:10040000B8F1000F1ED07542291E1EDDC9F1000291
:100410001CE0B8F1010F4FF0000001D0302103E0E3
:10042000F24305E02154401CB042FBDB3046002281
:10043000002121540B99C1F80880C1E900200FB0B8
:10044000BDE8F08FBD1B6D1CDEE74A4600DA69424D
:1004500006A800F067FA06AB93E8070003AB83E851
:10046000070050460A9900F04CFB8DE80700A0F504
:1004700000501F3800900398002D0ADD42F21F0142
:100480004A460844002303A90390684600F0B5FDDE
:1004900009E0A0F500504A461F38002303A9039045
:1004A000684600F0BFFD8DE807000004000C03D093
:1004B0004FF0FF30410800E01046B8F1000F03D0C4
:1004C0000022009215461EE0751E05D400F08CF93E
:1004D000303262556D1EF9D5B3460122084302D071
:1004E00000227F1C04E02078302801D100227F1EEA
:1004F000002A099784D01DE0112D07DA00F074F965
:10050000303262556D1C50EA0102F5D1084302D029
:100510000098C8B10EE00021681E05E0235C625C13
:1005200063542254401E491C8142F7DBAB46A81B92
:10053000401E0990002004F80B000B98099AC0F89F
:100540000880C0E9002B7AE711264FF0000857E732
:100550002DE9F04F88460446D21D22F0070191B0E4
:10056000D1E90001CDE90A0101F0FEFD02460B9838
:10057000C00F01D02D2007E02068810701D52B2076
:1005800002E0202101EAC000032A099001D0072AD5
:1005900005DB03464146204600F084F90BE1207854
:1005A000800601D5E06900E00620B8F1650F8146BC
:1005B00006D0B8F1660F18D0B8F1670F70D131E0EE
:1005C0000020B9F1110F009001DB112301E009F1C6
:1005D00001030AAA01A90CA8FFF7E2FEDDE90C70ED
:1005E000002609F10105834647E001204B460090B3
:1005F0004FF000470AAA01A90CA8FFF7D1FEDDE9D8
:100600000DB00C995D46002610B909F101000D18D6
:10061000B9EB050003D4C0F1FF3609F10105A5EBE4
:1006200009002BE0B9F1010F01DA4FF001090020B8
:10063000B9F1110F0090484601DD112300E0034697
:100640000AAA01A90CA8FFF7ABFEDDE90C704D4624
:1006500000268346207800070AD4AB4500DA5D46C1
:1006600001A8012D04DD411911F8011C302907D022
:100670004F4502DA17F1040F04DA012082460FE039
:100680006D1EEEE7002F02DCED1B3E4403E0781CFC
:10069000A84200DD7D1CB81B00F1010A4FF00047A5
:1006A0002078000703D4AA4501DB4FF0FF3A002170
:1006B000B7F1004F0DF143088DF8431024D002200C
:1006C0002B23002F01DA7F422D230A21021EA0F1E5
:1006D000010000DC5FB197FBF1FC97FBF1F201FB3D
:1006E0001C7C17460CF1300C08F801CDEEE7A8F1A0
:1006F000010003702188090501D5452100E065212D
:10070000A0F1010800F8011C09980FA9A1EB080746
:10071000FF1D00B10120411901EBEA70A1693844C5
:10072000081A401EA0612078C00602D42046FFF7B8
:1007300085FD099828B1D4E901219047206A401C21
:1007400020622078C00622D52046FFF777FD1EE004
:10075000002E04DBB34502DD01A8805D00E03020FF
:10076000D4E901219047206A401C2062761CAAF13E
:1007700001005FEA000A0AD100F032F8C06801689F
:10078000405CD4E901219047206A401C2062281E69
:10079000A5F10105DCDC07E0D4E9012118F8010B23
:1007A0009047206A401C2062381EA7F10107F3DC45
:1007B0002046FFF759FD032011B041E6074B70B505
:1007C0000D467B4400F05BF80446284600F01CF917
:1007D00010B14FF0FF3070BD204670BDB71A000059
:1007E000004870475C01002030B5B0F10A024FEAC2
:1007F000900E71F100034EEA817EB0EB0E0061EBCA
:1008000091014FEA101E4EEA017E10EB0E0041EB03
:1008100011114FEA102E4EEA016E10EB0E0041EB63
:1008200011214FEA104E4EEA014E10EB0E0041EB43
:100830001141401841F100014FEAD00040EA4170F7
:100840004FEAD10110EB80054FEA810444EA90742D
:1008500044EB01046D1944EB0404521BA3414FF017
:10086000000348BF0A3200D530BD401C41F10001F1
:1008700030BD000001694A1C02610878704700B56C
:100880008FB0CDE901310021059105497944CDE9C9
:10089000031011466846FFF7F8FC0FB000BD0000DA
:1008A000E5FFFFFF2DE9F0411F46044603260168DE
:1008B000072A01F4006004DB08B116A505E016A5BF
:1008C00003E008B115A500E015A521F01000206097
:1008D000A069C01EA0610FB1401EA0612046FFF7B5
:1008E000ADFC4FB1D4E9012138469047206A401C45
:1008F0002062C01C206206E0206AFAE7D4E90121E8
:1009000015F8010B9047761EF8D22046FFF7ACFC95
:10091000BDE8F0814E414E006E616E00494E4600CA
:10092000696E66002DE9F047814616468AB0354863
:1009300078440DC88DE80D0032487844801C03AC23
:100940000DC884E80D0041F69B300844372190FB28
:10095000F1F290FBF1F5A5F1800501FB12041B3CBF
:1009600002D56442012000E00020DFF898A0804614
:100970000027FA44AAF1BE0A0EE0E0070AD0324688
:10098000684607EB470101230AEB810100F04AFBAF
:100990008DE8070064107F1C002CEED1194F7F44B6
:1009A000AE3F19E0E80715D007EB04100DF1180A67
:1009B00090E80E008AE80E00C068F04201D1981954
:1009C00008903246012306A903A800F02BFB03ABD5
:1009D00083E807006D10641C002DE3D14FF0010384
:1009E00032466946B8F1000F03A802D000F005FBBB
:1009F00001E000F017FBC9E90001C9F808200AB0BE
:100A0000BDE8F08738290000007B00F080007047C7
:100A1000004870473C0100207546FFF7F9FFAE46DD
:100A200005006946534620F00700854618B020B5FA
:100A3000FFF7E6FBBDE820404FF000064FF000074F
:100A40004FF000084FF0000B21F00701AC46ACE876
:100A5000C009ACE8C009ACE8C009ACE8C0098D46E3
:100A6000704710B50446AFF300802046BDE8104043
:100A7000FFF7B2BB4FF0013C50F8042B51F8043B98
:100A80009A4221D1A2EB0C03934313EACC1317D162
:100A900050F8042B51F8043B9A4215D1A2EB0C03F9
:100AA000934313EACC130BD150F8042B51F8043BB9
:100AB0009A4209D1A2EB0C03934313EACC13DBD087
:100AC0004FF00000704700BFD01A01BAB1FA81F1AF
:100AD00001F0180122FA01F0CB40C1F12001DBB294
:100AE000C0B2C01A2CFA01F3D11A914311EAC31112
:100AF000E6D1704701491820ABBEFEE72600020090
:100B000070475FEA400C08BF91F0000F4FEA8C235A
:100B10004FEAC12243EA51514FEA1C5018BF00F579
:100B2000F0404FEA300018BF41F000415FEA6C5CD2
:100B300000F02980BCF1FF3F08BF40F080407047C3
:100B4000130C06BF12044FF0100C4FF0000C130EE4
:100B500004BF12020CF1080C130F04BF12010CF1B8
:100B6000040C930F04BF92000CF1020CD30F04BFCE
:100B700052000CF1010C11464FF00002A0F11F00D1
:100B8000A0EB0C00704711F0004F08BF704731F028
:100B900000413FF4D5AF0B0C06BF09044FF0100C19
:100BA0004FF0000C0B0E04BF09020CF1080C0B0FE8
:100BB00004BF09010CF1040C8B0F04BF89000CF178
:100BC000020CCB0F04BF49000CF1010CCCF1200347
:100BD000A0EB0C0022FA03F302FA0CF241EA030143
:100BE00000F10100704720F07F4C80EA030023F001
:100BF0007F47ACEB070303F57C5300F0004003F1A3
:100C0000FF032DE980494FEA154B09B44FEA14431D
:100C100025EA0B4E24EA03480FF2042606EB1327BD
:100C200049083E785FEA320203FB0667C7F5000712
:100C300007FB06F64FEA54374FEAD64606F102069E
:100C400007FB066CCCF1005C4FEA1C472CEA074C12
:100C500007FB06F40CFB06F504EB15464FEA961667
:100C600034BF00204FF000404FEAD13706FB07FCAD
:100C70004FEA1C4C0CFB0BF7D21B03FB0CF761EB90
:100C800007010CFB0EF7B0EB074072EB17420CFBB1
:100C900008F734BFA2EB0742B2EB074261EB174102
:100CA0004FEA0C444FEA910706FB07FC4FEA1C4C45
:100CB0000CFB0BF7B0EBC74072EB573203FB0CF7A2
:100CC00034BFA2EBC742B2EBC74261EB57310CFB1A
:100CD0000EF7B0EBC70072EB57720CFB08F734BF8E
:100CE000A2EBC702B2EBC70261EB5771039F4FEA59
:100CF000816141EA921104EBCC044FEAD1374FEA0B
:100D0000826206FB07FC42EA90124FEA80604FEADB
:100D10001C4C0CFB0BF7D21B03FB0CF761EB070120
:100D20000CFB0EF7B0EB074072EB17420CFB08F719
:100D300034BFA2EB0742B2EB074261EB17414FEA27
:100D40008C554FEA910704EB9C2406FB07FC4FEA05
:100D50001C4C0CFB0BF7B0EBC74072EB573203FB9C
:100D60000CF734BFA2EBC742B2EBC74261EB57317D
:100D70000CFB0EF7B0EBC70072EB57720CFB08F7D9
:100D800034BFA2EBC702B2EBC70261EB577115EBA0
:100D90004C254FEA816141EA92114FEA82624FEAA3
:100DA000D13742EA901206FB07FC44F100044FEAF7
:100DB00080604FEA1C4C0CFB0BF7D21B03FB0CF7BB
:100DC00061EB07010CFB0EF7B0EB074072EB17422B
:100DD0000CFB08F734BFA2EB0742B2EB074261EB12
:100DE000174115EB1C154FEA813141EA92414FEA58
:100DF000823242EA90424FEA80304FEA0C7644F168
:100E0000000448EA03434EEA0B484FF0000EB2EBF1
:100E1000080C71EB030724BF624639464EEB0E0EF9
:100E20004FF0000B0018524149414BEB0B0BB2EB5A
:100E3000080C71EB03077BF1000B24BF62463946B7
:100E40004EEB0E0E4FF0000B0018524149414BEB98
:100E50000B0BB2EB080C71EB03077BF1000B24BF0B
:100E6000624639464EEB0E0E51EA020718BF46F0B5
:100E7000010616EB0E7655F1000254F1000103D580
:100E8000BDE88901BDE80088BDE88901BDE80048EA
:100E9000B619524141EB0101A3F101037047808073
:100EA0007F7E7D7C7B7A79787776767574737271C4
:100EB00071706F6E6E6D6C6C6B6A6A69686867667C
:100EC00066656464636362616160605F5F5E5E5D0E
:100ED0005D5C5C5B5B5A5A59595858575756565582
:100EE00055555454535352525251515050504F4FE4
:100EF0004F4E4E4D4D4D4C4C4C4B4B4B4A4A4A4934
:100F00004949484848474747474646464545454476
:100F10004444444343434342424242414141002B03
:100F20009C4630D477002BD01CB54FEA370703B46A
:100F30004FF010004FF01001BAF1000F06D0BCF1D5
:100F4000000FDCBF40F0080040F008014FF0000047
:100F50000FBCBDE810400BF1010BBBF1010F08BF46
:100F60005FEA170722BF12F1010211F101014FF0F0
:100F7000004143F1000300F0004043EA00007047E5
:100F8000F9D35708D0E746EA064613F1400F4FEA77
:100F900016461FDD13F1200FDFBF16430A4600215E
:100FA00020335B42BED0C3F1200746EA064602FA70
:100FB00007F74FEA164646EA0706C3F1200722FA6A
:100FC00003F201FA07F721FA03F14FF0000342EAB6
:100FD0000702A7E746EA020646EA06464FEA164631
:100FE00046EA0106BCBF46EA0646360C4FF000034F
:100FF0004FF000024FF0000194E72DE9804C9A4633
:10100000934670B491E8380007C831EA400C48BFF5
:1010100034EA430C03D5FFF7E6FDFFF780FFF0BC91
:10102000BDE8008C2DE9804C9A46934670B491E857
:10103000380007C810F0804F08BF13F0804F03D16D
:1010400000F005F8FFF76BFFF0BCBDE8008C20F066
:101050007F4780EA030023F07F4C07EB0C03A3F5E6
:101060007C5300F00040A3F1FE0392F0000F00F06B
:10107000B38095F0000F00F077802DE901494FEA29
:1010800011404FEA144621EA004800FB06FC24EA1E
:10109000064708FB06F607FB08F800FB07F718EB06
:1010A00006484CEB164C4FEA124B18EB07484FEA38
:1010B00015464CEB174022EA0B4E0BFB06FC25EACB
:1010C00006470EFB06F607FB0EFE0BFB07F71EEBB3
:1010D000064E4CEB164C4FF000061EEB074E4CEB49
:1010E000174B18EB0B0840F1000018EB0E0B58EBF8
:1010F000000840F100008F1A4FF000013CBFC943C7
:10110000661B14BFB5EB040C00213CBFC943F61BA2
:101110004FEA17444EEA8E0E27EA04454FEA1C4771
:1011200004FB07622CEA074C05FB07F70CFB05F6EE
:1011300004FB0CFC16EB074642EB174216EB0C4681
:1011400042EB1C421BEB060658EB0202414146EA09
:101150009E0601D5BDE80189B619524141EB010156
:10116000A3F10103BDE801894FEA14454FEA114795
:1011700024EA054621EA074C05FB07F406FB07F7BE
:101180000CFB06F105FB0CFC11EB074144EB17448B
:101190004FEA124711EB0C4144EB1C4422EA074C86
:1011A00005FB07F206FB07F70CFB06F605FB0CFC3C
:1011B00016EB074642EB174216EB0C4642EB1C457A
:1011C0006A1854F1000148BF7047B619524141EB0B
:1011D0000101A3F10103704795F0000F37D04FEAEA
:1011E00011424FEA144721EA024624EA074C02FB67
:1011F00007F106FB07F70CFB06F402FB0CFC14EBF3
:10120000074441EB17414FEA154714EB0C4441EBFF
:101210001C4125EA074C02FB07F506FB07F70CFB10
:1012200006F602FB0CFC16EB074645EB174516EBE2
:101230000C4645EB1C42121951F1000148BF7047A2
:10124000B619524141EB0101A3F1010370474FEA86
:1012500014454FEA114724EA054621EA074C05FBED
:1012600007F106FB07F70CFB06F24FF0000605FB43
:101270000CFC12EB074241EB174112EB0C4251EB15
:101280001C4148BF7047921841EB0101A3F10103D3
:10129000704700BFFEE710B500F0B8F810BD70470A
:1012A0002DE9F041024600250026002000230024FD
:1012B000002791F803C00CF00F0591F803C00CF063
:1012C000100CBCF1000F03D091F802C04CEA0505E8
:1012D00091F800C0BCF1000F31D0146800202BE061
:1012E0004FF0010C0CFA00F3B1F800C00CEA030651
:1012F0009E4220D183004FF00F0C0CFA03F7BC4341
:1013000005FA03FC4CEA040491F803C0BCF1280F71
:1013100006D14FF0010C0CFA00FCC2F814C00AE030
:1013200091F803C0BCF1480F05D14FF0010C0CFA45
:1013300000FCC2F810C0401C0828D1D31460B1F8DA
:1013400000C0BCF1FF0F34DD546800202EE000F136
:10135000080C4FF0010808FA0CF3B1F800C00CEAD1
:1013600003069E4221D183004FF00F0C0CFA03F7C5
:10137000BC4305FA03FC4CEA040491F803C0BCF139
:10138000280F05D100F1080C08FA0CF8C2F81480F7
:1013900091F803C0BCF1480F07D100F1080C4FF0E1
:1013A000010808FA0CF8C2F81080401C0828CED3B7
:1013B0005460BDE8F08100BFFEE7000010B50020DA
:1013C0000F4908600F48006820F0F0000D490860E0
:1013D0000846006840F03000086000200A49C1F863
:1013E000A401022000F024FF01200549086002202A
:1013F00000F01EFF00200449C1F8A00110BD00004C
:10140000A0812142040C01400080214208B5012145
:10141000082000F0EDF94FF44070ADF80000102006
:101420008DF8030003208DF8020069460448FFF799
:1014300037FF0120034908600349C1F8A40108BD32
:10144000000C0140A08121420080214210B5002003
:101450000F4908600F48006820F0F0000D4908604F
:101460000846006840F03000086001200A49C1F8D1
:10147000A401022000F0DCFE0120054908600220E2
:1014800000F0D6FE00200449C1F8A00110BD000004
:10149000A0812142040C0140008021422DE9F0414D
:1014A00004460F4615461E4600F09AF8204600F006
:1014B00067F800BF00F0E2F80028FBD1384600F0E2
:1014C0005FF800BF00F0DAF80028FBD100F088F8E0
:1014D00044F0010000F054F800BF00F0CFF80028FD
:1014E000FBD10DE0012D04D1012000F011F8307086
:1014F00003E0002000F00CF83070681EC5B2761CC6
:10150000002DEFD100F094F80020BDE8F08100003C
:1015100070B50546002600241648006820F0F0004B
:10152000144908600846006840F08000086000BF69
:1015300015E0002010490860022000F079FE01202B
:101540000E49C1F8A001022000F072FE6006040EF0
:1015500009487C38006808B1601CC4B2761C082EAB
:10156000E7DB15B9FFF72AFF01E0FFF76FFF204621
:1015700070BD0000040C0140A08121420080214286
:1015800070B5044600251348006820F0F0001149AA
:1015900008600846006840F03000086000200E49EE
:1015A000086000BF13E0E0090B49091D08606006F0
:1015B000040E022000F03CFE01200849C1F8A00101
:1015C000022000F035FE0020034908606D1C082D44
:1015D000E9DB70BD040C0140A08121420080214262
:1015E00010B51048006820F0F0000E490860084669
:1015F000006840F03000086001200B4908600B498A
:10160000C1F8A401042000F013FE00200649091DC2
:101610000860042000F00CFE00200449C1F8A0017D
:1016200010BD0000040C0140A08121420080214235
:1016300010B50F48006820F0F0000D49086008461A
:10164000006840F03000086000200A4908600A493C
:10165000C1F8A401042000F0EBFD01200549091D9B
:1016600008600549C1F8A001042000F0E1FD10BDAB
:10167000040C0140A08121420080214210B50024C9
:101680001448006820F0F00012490860084600681D
:1016900040F08000086001200F49086000F0C8FD9C
:1016A00001200E49C1F8A00100F0C2FD07E0601C56
:1016B000C4B2FA2C03DDFFF7BBFF012010BD0648C2
:1016C000803800680028F2D10349091F086000BF74
:1016D000F4E70000040C0140A48121420080214273
:1016E00070B504460D461646FFF77AFF2046FFF711
:1016F00047FFFFF7C3FF18B1FFF79AFF012070BD46
:101700002846FFF73DFFFFF7B9FF18B1FFF790FF3D
:101710000120F4E73046FFF733FFFFF7AFFF18B1C2
:10172000FFF786FF0120EAE7FFF782FF022000F0C3
:1017300059FD0020E3E700BFFEE7704770B50021C8
:1017400000230F22C47804B3154C246804F4E06429
:10175000C4F5E064210AC1F10403CA40447804FAE4
:1017600003F184781440214309010E4C0678A155F9
:10177000047804F01F050124AC4005786D11AD001C
:1017800005F1E025C5F8004109E0047804F01F05E3
:101790000124AC40044D0678761145F8264070BD12
:1017A0000CED00E000E400E080E100E070470000A4
:1017B00029B1064AD2690243044BDA6104E0034AC4
:1017C000D2698243014BDA61704700000010024089
:1017D00029B1064A12690243044B1A6104E0034A24
:1017E00012698243014B1A617047000000100240E9
:1017F00029B1064A92690243044B9A6104E0034A04
:1018000092698243014B9A617047000000100240C8
:1018100029B1064AD2680243044BDA6004E0034A65
:10182000D2688243014BDA6070470000001002402A
:1018300030B500210022002400232D4D6D6805F0F5
:101840000C0121B1042905D0082923D105E0294D37
:10185000056022E0274D05601FE0254D6D6805F409
:101860007012234D6D6805F48034022505EB924219
:101870001CB9214D554305600BE01D4D6D6805F405
:1018800000351DB11C4D5543056002E0194D55430F
:10189000056002E0174D056000BF00BF144D6D6884
:1018A00005F0F0010909154D6B5C0568DD404560E8
:1018B0000F4D6D6805F4E061090A104D6B5C4568D9
:1018C000DD4085600A4D6D6805F46051C90A0B4D15
:1018D0006B5C4568DD40C560054D6D6805F44041B1
:1018E000890B074D6B5CC568B5FBF3F5056130BD31
:1018F0000010024000127A0000093D005400002050
:1019000064000020704710B500F002F810BD000020
:101910000CB50020019000903348006840F48030FE
:101920003149086000BF3048006800F40030009082
:101930000198401C0190009818B90198B0F5A06F6B
:10194000F1D12948006800F4003010B10120009066
:1019500001E0002000900098012843D1234800684E
:1019600040F01000214908600846006820F003009C
:1019700008600846006840F0020008601A484068A5
:10198000194948600846406848600846406840F485
:10199000806048600846406820F47C104860084633
:1019A000406840F4E81048600846006840F08070E5
:1019B000086000BF0C48006800F000700028F9D0F3
:1019C0000948406820F0030007494860084640681D
:1019D00040F00200486000BF0348406800F00C007F
:1019E0000828F9D10CBD0000001002400020024080
:1019F000042808D14FF0E021096941F004014FF0BB
:101A0000E022116107E04FF0E021096921F00401B3
:101A10004FF0E022116170477047000010B5134885
:101A2000006840F00100114908600846406810490C
:101A300008400E494860084600680E4908400B49B6
:101A400008600846006820F4802008600846406866
:101A500020F4FE0048604FF41F008860FFF753FF3A
:101A60004FF000600449086010BD00000010024003
:101A70000000FFF8FFFFF6FE08ED00E010B540F2B1
:101A80002551064800F0C9F930B10448001D00880E
:101A9000C1B2034800F00CFA10BD0000004C004039
:101AA0002C00002010B504460121C804FFF780FE79
:101AB000072C00D000BF10BD10B540F225510548DD
:101AC00000F0ABF928B103488088C1B2024800F0A9
:101AD000EFF910BD005000403800002010B504465A
:101AE00001210805FFF764FE10BD000010B540F2AB
:101AF0002551064800F091F930B10448001D0088D6
:101B0000C1B2034800F0D4F910BD00000038014014
:101B10000800002010B50446E4B901210520FFF7B4
:101B200067FE01218803FFF763FE4FF40070184938
:101B300008801820C870032088701648FFF7B0FB93
:101B40004FF48060124908800420C8701148FFF7E4
:101B5000A7FB1BE0012C19D101210820FFF748FE4B
:101B600001218803FFF744FE40200949088018201E
:101B7000C870032088700848FFF792FB8020044952
:101B800008800420C8700448FFF78AFB10BD0000DD
:101B90005000002000080140000C014010B540F248
:101BA0002551064800F039F930B10448001D00887D
:101BB000C1B2034800F07CF910BD000000440040B1
:101BC0001400002010B5044601214804FFF7F0FD81
:101BD000022C1AD101210420FFF70AFE012148043A
:101BE000FFF7E6FD0420174908801820C87003207D
:101BF00088701548FFF754FB08201249088004201C
:101C0000C8701148FFF74CFB1BE0032C19D10121D0
:101C10002020FFF7EDFD01214804FFF7C9FD20203A
:101C2000084908801820C870032088700748FFF70B
:101C300037FB4020034908800420C8700348FFF7A1
:101C40002FFB10BD5000002000080140001401408F
:101C500010B540F22551064800F0DFF830B10448D5
:101C6000001D0088C1B2034800F022F910BD000039
:101C7000004800402000002010B5044601218804DF
:101C8000FFF796FD042C1AD101210820FFF7B0FDC3
:101C900001218804FFF7ACFD2002284908801820A4
:101CA000C870032088702648FFF7FAFA60022349BB
:101CB00008800420C8702248FFF7F2FA3CE0052CA7
:101CC0001CD101211020FFF793FD01218804FFF7AB
:101CD0008FFD4FF48060194908801820C8700320D8
:101CE00088701848FFF7DCFA4FF400601349088049
:101CF0000420C8701348FFF7D3FA1DE0062C1BD14F
:101D000001212020FFF774FD01218804FFF770FDF9
:101D10004FF48070094908801820C870032088702B
:101D20000948FFF7BDFA4FF4007004490880042009
:101D3000C8700548FFF7B4FA10BD0000500000203D
:101D4000000C0140001001400014014021B18289C3
:101D500042F40052828104E082894DF6FF731A40FA
:101D60008281704710B504462048844209D1012180
:101D70008803FFF74DFD00214FF48040FFF748FD39
:101D800032E01B48844209D101214804FFF720FDBD
:101D900000214FF40030FFF71BFD25E01548844279
:101DA00009D101218804FFF713FD00214FF48020A1
:101DB000FFF70EFD18E01048844209D10121C80444
:101DC000FFF706FD00214FF40020FFF701FD0BE0B7
:101DD0000A48844208D101210805FFF7F9FC0021D7
:101DE0004FF48010FFF7F4FC10BD000000380140F4
:101DF0000044004000480040004C004000500040BB
:101E000002460020B1F5007F00D100BF13880B40CF
:101E10000BB1012000E00020704770B5024600249D
:101E200000230025002040F66A16B14200D100BF11
:101E3000C1F3421501F01F03012606FA03F3012D39
:101E400002D19689334006E0022D02D1168A334032
:101E500001E0968A33400C12012606FA04F4168833
:101E6000344013B10CB1012000E0002070BD00002F
:101E700001460A4A914200D10020094A914200D10C
:101E80000120084A914200D10220074A914200D124
:101E90000420064A914200D10520704700380140D5
:101EA0000044004000480040004C0040005000400A
:101EB00010B5C28883889A420FDA028983889A42D1
:101EC00001D1002202814AB2048903681A550289AD
:101ED000521C0281C288521CC28010BDF0B503465C
:101EE000002400260025002040F66A17B94200D1E0
:101EF00000BF1846C1F3421401F01F06012707FA7C
:101F000006F5012C01D10C3004E0022C01D1103077
:101F100000E014301AB107682F43076002E0076839
:101F2000AF430760F0BD00002DE9F04786B00546DD
:101F30000E460024A24600BFA1460027B08900B18A
:101F400000BF2F462C8A4CF6FF700440F0880443F3
:101F50002C82AC894EF6F3100440B08831890843D6
:101F6000718908430443AC81AC8A4FF6FF400440BA
:101F7000B0890443AC8201A8FFF75AFC1F4887428E
:101F800002D1DDF810A001E0DDF80CA0A88900F472
:101F9000004040B10AEBCA0000EB0A10316849006A
:101FA000B0FBF1F807E00AEBCA0000EB0A10316859
:101FB0008900B0FBF1F86420B8FBF0F004012009BF
:101FC000642101FB1089A88900F4004040B132204F
:101FD00000EBC900B0FBF1F000F00700044308E09B
:101FE000322000EB09106421B0FBF1F000F00F008B
:101FF00004432C8106B0BDE8F087000000380140A2
:1020000013B5044600BF80212046FFF7F9FE0028E3
:10201000F9D09DF80400A0801CBD000070B586B00A
:1020200004460D46164602964948844212D1284677
:10203000FFF770FD25208DF804000020ADF8140096
:102040000C20ADF812000020ADF81000ADF80E0025
:10205000ADF80C003F48844212D12846FFF7B2FD8C
:1020600026208DF804000020ADF814000C20ADF8F7
:1020700012000020ADF81000ADF80E00ADF80C0015
:102080003548844212D12846FFF7F6FD27208DF807
:1020900004000020ADF814000C20ADF81200002060
:1020A000ADF81000ADF80E00ADF80C002B488442DE
:1020B00012D12846FFF7F6FC34208DF804000020EA
:1020C000ADF814000C20ADF812000020ADF810009F
:1020D000ADF80E00ADF80C002148844212D128461C
:1020E000FFF7FCFC35208DF804000020ADF814004B
:1020F0000C20ADF812000020ADF81000ADF80E0075
:10210000ADF80C0000212046FFF720FE2046FFF727
:1021100029FE02A92046FFF707FF01212046FFF70D
:1021200015FE012240F225512046FFF7D7FE01207F
:102130008DF8070000208DF805002046FFF798FE77
:102140008DF8060001A8FFF7F9FA06B070BD00008F
:10215000003801400044004000480040004C00406E
:102160000050004000BFFEE7490050EAC12018BF00
:1021700004204A0D18BF40F0010040F2FF72B2EB9C
:10218000515F08BF40F00200012808BF05207047DA
:1021900030380A2801D20120704700207047000023
:1021A00010B56FF00400FFF723FC0A4800680A49E5
:1021B000B0FBF1F0094908700846007800EB4001D7
:1021C000C1EBC0104FF6FF7101EAC000044908805E
:1021D00010BD00006800002000127A0000000020FE
:1021E000020000200146114A12884A434FF0E023C2
:1021F0005A6100229A611A46126942F001021A617C
:1022000000BF4FF0E022106900F001021AB100F4A3
:102210008032002AF5D04FF0E022126922F001024C
:102220004FF0E0231A6100229A61704702000020FB
:102230000146114A12784A434FF0E0235A610022C6
:102240009A611A46126942F001021A6100BF4FF00A
:10225000E022106900F001021AB100F48032002A75
:10226000F5D04FF0E022126922F001024FF0E02396
:102270001A6100229A6170470000002070B5044680
:102280000D46E1B20248FFF7BBFE204670BD0000DC
:10229000004400401FB500BF00BF00BF00BF0020CA
:1022A0000290039000BFFFF77BFF0121152000F093
:1022B0007DF80021162000F079F84FF4E132022178
:1022C0002B48FFF7ABFE2BA0FDF7ACFFFEF7E3FFBB
:1022D00040F21450FFF786FF48E028A0FDF7A2FF68
:1022E00006222C218820FFF7FBF94FF49670FFF7A8
:1022F00079FF02AB062200218820FFF7CFF89DF876
:1023000009109DF8082041EA0221AF2201FB02F0EA
:1023100000F012FA06461D4900F04CF905461C492A
:1023200000F06EFA04469DF80C109DF80B2041EA6F
:102330000221642201FB02F000F0FEF90546134978
:1023400000F038F981463220FFF74CFF484600F094
:10235000A3F805460E46204600F09EF807463A468A
:102360000B460CA0CDE90056FDF75CFFB5E7000079
:10237000004400406162630D0A0000007363616EF7
:102380006E696E672E2E2E0D0A00000000FF7F473B
:1023900000003442543D2025342E32662020483D32
:1023A0002025342E32660D0A00000000F8B50546DF
:1023B0000C4605EB4500294951F8306005EB450016
:1023C00001EBC000808887B205EB4501234A02EB90
:1023D000C10188680121FFF70BFAADF800701CB944
:1023E00004208DF8030034E0022C03D148208DF83E
:1023F00003002EE0032C03D128208DF8030028E0F1
:10240000012C06D110208DF8030003208DF8020066
:102410001FE0072C06D114208DF8030003208DF84F
:10242000020016E0042C06D11C208DF803000320C6
:102430008DF802000DE0052C06D118208DF8030060
:1024400003208DF8020004E0062C02D100208DF854
:10245000030069463046FEF723FFF8BDF028000868
:1024600010B500290AD00878002807D0054878441C
:10247000FEF700FB002801D0002010BD0248784480
:1024800010BD0000360E00002E0E00000808A0F55A
:1024900000114FEA3101704743004FEAD30C4FEA75
:1024A0003C0C43401FBF40070CF1605113F0FE4F3E
:1024B00070471CF0006F03D100200CF00041704702
:1024C0000CF0004343EA507010B540EACC0000F035
:1024D0004BF900BF000000924FEA0001FFF7D6BFA2
:1024E0004FF000414FF00000A1F5002170470000BF
:1024F00090EA010F48BF81F0004100F18881421A43
:102500003CBF801A89184FEAD0524FF07F4C1CEA2A
:10251000410FA2EBD15318BF9CEA026F00F03B8041
:102520004FF0004C4CEA00204CEA012121FA03FC58
:1025300010EB0C0C1ED202F1FF325FEA1C2040EBC4
:10254000C25038BF70471CF07F0F4FEA400C18BFD5
:10255000BCF17F4F38BF7047C3F12003994008BFDB
:1025600020F00100BCF17F4F38BF7047A0F1C040A0
:1025700000F040B94FEA3C00000A40EBC25028BFCF
:102580001CF0FF0F4FEA400CE6D018BFBCF17F4FA4
:1025900038BF7047EAE79CEA026F05D010EA5C0F8B
:1025A00008BF00F00040704710B500F0DDF800BF34
:1025B00064FBBE3E4FF47F0C1CEAD0121EBF1CEA27
:1025C000D11392EA0C0F93EA0C0F00F0858090EA89
:1025D000010F48BF42F4807240F4000C41F4000047
:1025E0002CF07F4120F07F4000B58142A2EB030236
:1025F0000FF2081CACEB504EC0F100009EF800E05A
:102600004FEA4E0E00FB0EFC38BF49004FEA2C1C6F
:1026100002F5FA020CFB0EF34FEACE1E4FEA112C24
:102620004FEAC1210EEB635E42EB22420EFB0CFC33
:102630004FEA1C5300FB03114FEA112C4FEA013102
:102640000EFB0CFC4FEADC4C00FB0C11C14228BF16
:1026500009184CEB03335DF804EB10EB410143EB3D
:10266000C250B2F57C0F38BF704729D512F0F00F79
:102670001CBF00F1C04000F0004070470081828321
:102680008485868788898B8C8D8E8F919293959681
:1026900097999A9C9D9FA0A2A3A5A7A8AAACAEB00B
:1026A000B2B3B5B7B9BCBEC0C2C5C7C9CCCED1D410
:1026B000D7D9DCDFE2E6E9ECF0F3F7FAFE00000040
:1026C0004FEA400C0CF1807CBCF17E4F28BF704774
:1026D000B0F1C04000F08EB890EA010F0CEAD113BF
:1026E00048BF42F48072624538BF634507D213F495
:1026F0007F0F16D080EA010000F00040704710B54F
:1027000000F032F8097EFC3E00F005B880EA0100D6
:1027100000F00040704780EA010000F0004000F047
:1027200069B812F47F0F04BF0248704780EA0100C5
:1027300000F060B80000C07F10F0004148BF404288
:10274000B0FA80F310FA03F2C3F19D030BD051EA03
:10275000C35101EB1220530638BF704700F101004E
:1027600008BF20F0010070470EF1020E2EF0030E9C
:102770005EF8044B244204D44FEA4102B2F17F4F89
:1027800011D84FEA4003B3F17F4F0CD80ED14FEA76
:10279000D07CB2F17F4F0CEB4C0C0CF1020C08BF5B
:1027A0004CEBD17C04E04FF0080C01E04FEAD17C07
:1027B0000CEB4C0324FA03F404F00704B4F1040C0A
:1027C00006D20EEB840CBDE810404CF0010C6047C3
:1027D000DFE80CF0070802024FF00040A0F580008F
:1027E00010BD0846420018BFD2F1807288BF00F0C9
:1027F000004010BDFF2141EAD050C00570470000E5
:1028000090EA010F48BF81F000413FF578AE421ACF
:1028100004D882F00042A0EB020011444FEAD052EB
:102820004FF07F4C1CEA410FA2EBD15318BF9CEA3A
:10283000026F4AD04FF0004C4CEA00204CEA0121D4
:1028400021FA03FCB0EB0C0C0FD412F0FE0F36D0C3
:102850005FEA4C001DD5001240EBC25038BF7047F4
:102860001CF03F0F18BF70470BE0A2F101025FEAB6
:102870001C2040EBC25038BF70471CF07F0F18BFC0
:102880007047C3F12003994014BF401E20F001009F
:10289000704780084FEA122308BF7047B0FA80FCE7
:1028A000A2EB0C02CCF1280C60FA0CF093EA122F88
:1028B00004BF00EBC25070474FEAC3707047130A61
:1028C0005FEADC1008BF7047F6E79CEA026F04D0AD
:1028D00010EA5C0F08BF0020704710B5FFF744FFF7
:1028E00040DFF63E81F000407047FDF731BE00004A
:1028F000000801400100000004000000000000008A
:10290000000C004000000000000801400200000030
:10291000040000000100000000000040040000006E
:102920000008014004000000040000000200000054
:1029300000000040080000000008014008000000FE
:102940000400000003000000000000400C00000034
:102950000008014010000000040000000400000016
:1029600000000000000000000008014020000000FE
:10297000040000000500000000000000000000004E
:1029800000080140400000000400000006000000B4
:10299000000400400000000000080140800000002A
:1029A00004000000070000000004004004000000D4
:1029B00000080140000100000400000000000000C9
:1029C000002C01400000000000080140000200004F
:1029D0000400000000000000002C01400400000082
:1029E0000008014000040000040000000000000096
:1029F000002C014008000000000801400008000011
:102A00000400000000000000002C01400C00000049
:102A10000008014000100000040000000000000059
:102A2000000000000000000000080140002000003D
:102A30000400000000000000000000000000000092
:102A400000080140004000000400000000000000F9
:102A500000000000000000000008014000800000AD
:102A60000400000000000000000000000000000062
:102A7000000C0140010000000800000008000000F8
:102A80000004004008000000000C014002000000AB
:102A90000800000009000000000400400C000000D5
:102AA000000C0140040000000800000000000000CD
:102AB0000000000000000000000C014008000000C1
:102AC00008000000000000000000004004000000BA
:102AD000000C014010000000080000000000000091
:102AE0000004004000000000000C01402000000035
:102AF0000800000000000000000400400400000086
:102B0000000C014040000000080000000000000030
:102B10000008004000000000000C014080000000A0
:102B20000800000000000000000800400400000051
:102B3000000C01400001000008000000000000003F
:102B40000050014000000000000C014000020000A5
:102B500008000000000000000054014000000000D8
:102B6000000C01400004000008000000000000000C
:102B70000000004008000000000C014000080000B8
:102B80000800000000000000000000400C000000F1
:102B9000000C0140001000000800000000000000D0
:102BA0000000000000000000000C014000200000B8
:102BB000080000000000000000000000000000000D
:102BC000000C014000400000080000000000000070
:102BD0000018004000000000000C014000800000D0
:102BE0000800000000000000001800400400000081
:102BF0000010014001000000100000000A00000069
:102C00000000000000000000001001400200000071
:102C1000100000000B000000000000000000000099
:102C20000010014004000000100000000C00000033
:102C3000000000000000000000100140080000003B
:102C4000100000000D000000000000000000000067
:102C50000010014010000000100000000E000000F5
:102C600000000000000000000010014020000000F3
:102C7000100000000E000000000000000000000036
:102C800000100140400000001000000000000000A3
:102C900000340140000000000010014080000000EE
:102CA000100000000000000000340140040000009B
:102CB00000100140000100001000000000000000B2
:102CC0000034014008000000001001400002000034
:102CD0001000000000000000003401400C00000063
:102CE000001001400004000010000000000000007F
:102CF000000000000000000000100140000800007B
:102D000010000000000000000000000000000000B3
:102D10000010014000100000100000000000000042
:102D20000000000000000000001001400020000032
:102D30001000000000000000000000000000000083
:102D400000100140004000001000000000000000E2
:102D500000000000000000000010014000800000A2
:102D60001000000000000000000000000000000053
:102D700000140140010000002000000000000000DD
:102D800000000000000000000014014002000000EC
:102D90002000000000000000000000000000000013
:102DA00000140140040000002000000000000000AA
:102DB00000000000000000000014014008000000B6
:102DC00020000000000000000000000000000000E3
:102DD000001401401000000020000000000000006E
:102DE000000000000000000000140140200000006E
:102DF00020000000000000000000000000000000B3
:102E0000001401404000000020000000000000000D
:102E100000000000000000000014014080000000DD
:102E20002000000000000000000000000000000082
:102E3000001401400001000020000000000000001C
:102E4000000000000000000000140140000200002B
:102E50002000000000000000000000000000000052
:102E600000140140000400002000000000000000E9
:102E700000000000000000000014014000080000F5
:102E80002000000000000000000000000000000022
:102E900000140140001000002000000000000000AD
:102EA0000008004000000000001401400020000065
:102EB00020000000000000000008004004000000A6
:102EC000001401400040000020000000000000004D
:102ED00000080040080000000014014000800000CD
:102EE0002000000000000000000800400C0000006E
:102EF0000018014001000000400000000000000038
:102F00000000000000000000001801400200000066
:102F10004000000000000000000000000000000071
:102F20000018014004000000400000000000000004
:102F30000000000000000000001801400800000030
:102F40004000000000000000000000000000000041
:102F500000180140100000004000000000000000C8
:102F600000000000000000000018014020000000E8
:102F700040000000000000000010004000000000C1
:102F80000018014040000000400000000000000068
:102F90000010004004000000001801408000000004
:102FA00040000000000000000000000000000000E1
:102FB0000018014000010000400000000000000077
:102FC00000000000000000000018014000020000A6
:102FD0004000000000000000002C01400000000044
:102FE0000018014000040000400000000000000044
:102FF0000000000000000000001801400008000070
:103000004000000000000000002C0140040000000F
:103010000018014000100000400000000000000007
:103020000000000000000000001801400020000027
:103030004000000000000000002C014008000000DB
:1030400000180140004000004000000000000000A7
:10305000002C01400C00000000180140008000001E
:103060004000000000000000000000000000000020
:10307000001C014001000000800000000000000072
:103080000000000000000000001C014002000000E1
:1030900080000000000000000000000000000000B0
:1030A000001C01400400000080000000000000003F
:1030B0000000000000000000001C014008000000AB
:1030C0008000000000000000000000000000000080
:1030D000001C014010000000800000000000000003
:1030E0000000000000000000001C01402000000063
:1030F0008000000000000000000000000000000050
:10310000001C0140400000008000000000000000A2
:103110000000000000000000001C014080000000D2
:10312000800000000000000000000000000000001F
:10313000001C0140000100008000000000000000B1
:103140000000000000000000001C01400002000020
:1031500080000000000000000000000000000000EF
:10316000001C01400004000080000000000000007E
:103170000000000000000000001C014000080000EA
:1031800080000000000000000000000000000000BF
:10319000001C014000100000800000000000000042
:1031A0000000000000000000001C014000200000A2
:1031B000800000000000000000000000000000008F
:1031C000001C0140004000008000000000000000E2
:1031D0000000000000000000001C01400080000012
:1031E000800000000000000000000000000000005F
:1031F00002400000000000A00000000005400000A8
:10320000000000C8000000000C4000000000409CCE
:1032100000000000194000000020BCBE00000000BB
:1032200034400000BFC91B8E00000004B540000000
:10323000504BCFD06607E2CF010000006C41000088
:103240003E8251AADFEEA73401000000D9420000FF
:10325000DCB5A0E23A301F97FFFFFFFFB445000046
:10326000FD25A0C8E9A3C14FFFFFFFFFFF3F0000FE
:103270000000008000000000FF3F00000000008010
:1032800000000000C0320008000000207C000000A8
:103290006C0100083C3300087C000020240700007B
:1032A000880100081C00000043000000F8FFFFFF39
:1032B0000C0000000E0000000F0000002E000000B7
:1032C00000000000000000007C0000202000000042
:1032D000000000009C000020200000000000000012
:1032E000BC0000202000000000000000DC000020E6
:1032F0002000000000000000FC0000202000000072
:10330000000000001C010020200000000000000060
:103310000000000000000000010203040102030499
:10332000060708090204060800A24A04000000007B
:0C33300000000000010203040607080969
:0400000508000131BD
:00000001FF
