:020000040000FA
:1000000088090020150100002F01000031010000C7
:1000100000000000000000000000000000000000E0
:10002000000000000000000000000000330100009C
:100030000000000000000000350100003701000052
:100040003901000039010000010A0000990900008F
:1000500039010000000000003901000039010000F2
:1000600039010000390100003901000039010000A8
:100070003901000039010000390100003901000098
:100080003901000039010000390100003901000088
:100090003901000039010000390100003901000078
:1000A00039010000390100000000000000000000DC
:1000B0000000000000000000000000000000000040
:1000C0000348854600F090FB004800479915000062
:1000D00088090020401E00BF00BF00BF00BF00BF56
:1000E00000BF00BF00BF00BF00BF00BF00BFF1D115
:1000F00070470000401E00BF00BF00BF00BF00BF30
:1001000000BF00BF00BF00BF00BF00BF00BFF1D1F4
:10011000704700000321094802680A43026008484A
:1001200002680A4302600748804707480047FEE725
:10013000FEE7FEE7FEE7FEE7FEE7000024050040DD
:1001400054050040AD090000C100000003460B4308
:100150009B0703D009E008C9121F08C0042AFAD27D
:1001600003E00B780370401C491C521EF9D2704703
:10017000F8B502464A40D40F42004B0052085B08D3
:100180009A4202D20246084611464A0023D0C30DC5
:100190004A00DDB2120EAD1A202D35DA49020126D1
:1001A000490AF6058A19002C00D0524220214F1B23
:1001B0001146B9402A411018C20D9A4221D0002C94
:1001C00017D0012D08DCDA05801AD20F8019D2076A
:1001D000DBB200F00AF9F8BDDA05801A012340000D
:1001E0001B06C01880185A428018CA0F10434900D5
:1001F00007E04908C2071143DA05801A8019400850
:10020000801800F0EAF8F8BD61000122511A001BC5
:10021000F7E70122D2075140AAE70122D207504056
:10022000A6E7024670B54A40D30FDB0740002DD049
:100230004A002AD0010E140E000212020919400AC7
:10024000520A8418E50104465443000A120A2E0497
:100250005043A4194219200CC543AA18120C0125B9
:10026000AD03521C521912047F39240400D0521CD1
:10027000104301D44000491EC2B20C06C009201828
:10028000401C4008802A02D003E0002070BD4008D6
:100290004000002900DA0020184370BD70B5024606
:1002A0004A40D50F40004A00ED0740085208002898
:1002B00014D0002A12D0C40DD30D41020120C00574
:1002C0005202490A520AE41A091812187D3491425E
:1002D00001D3641C00E04900002C01DA002070BD4D
:1002E0000023914201D3891A0343400849000028A2
:1002F000F7D100290AD0914202D10121C90705E0B6
:10030000914201D2012101E00121C943E005C01859
:10031000401900F062F870BD10B500229623114616
:1003200000F063F810BDC20FD207400040080BD0A8
:10033000C10D0723DB01C91840020905400A11431A
:10034000C20840071143704700200146704730B58E
:100350000B46014600202022012409E00D46D5402D
:100360009D4205D31D469540491B254695404019A1
:100370001546521E002DF1DC30BDF0B51FB4064607
:10038000002082B005464024019100901BE00199B5
:1003900022460F46304600F049FA049A059B801A1F
:1003A000994110D310461946224600F02FFA361A0A
:1003B0008F410197224601200021009F00F026FA7C
:1003C00038184D4100902046641E0028DFDC019B58
:1003D00000982946324607B0F0BD002904DA401CD7
:1003E000490001D140084000704770B40024050C5A
:1003F00005D11024000402D1002921D01124050EBA
:1004000001D100020834050F01D10001241D850F20
:1004100001D18000A41C002801DB4000641C0029DD
:1004200008D020252E1B0D46F540A14000D001210B
:100430002943084301061B1B000ADB1D02D50020CF
:1004400070BC7047DB05181880180029F8DA401CCA
:100450004900F5D170BC400840007047F0B5074630
:100460000846584087B0C00F049048000E46590017
:1004700040084908BC1A884105D2384631461E4614
:1004800017460B4602465800400810434CD0300D2A
:10049000039040055900400D490D0590401A029007
:1004A000402872DA18030121000B09050843019066
:1004B00004980092002805D00199524200208841FA
:1004C00000920190029840210A1A0199009800F0C8
:1004D0009DF905460C466B4607CB00F0B8F9C019EC
:1004E0007141039A0E0D0023D71756401A467A40E1
:1004F000164344D0049A002A2DD0029A012A039A66
:1005000015DC1205C01A914101263605001C714107
:10051000D20F059ED2070093019202962A462346E7
:1005200000F0B5F907B0F0BD38463146FAE71605D8
:10053000224A0F46B218C01AB74101210905001C12
:100540004F4100187F41114618187941E20F1043BE
:100550006D19644113E0E2076D0815436408C20792
:100560001443039A01261205C01A91413605001C56
:100570007141CE07400830434908C01851412A460E
:10058000234600F077F9CDE7FFE704980122400009
:10059000C117121A00238B4104983146C417381A28
:1005A000A141EEE730B40124E407634030BC55E7D5
:1005B00030B40124E407614030BC4FE70000E0FFA5
:1005C000F0B51FB488B00B990998002448400999E8
:1005D000C00F490049080991C0070B9900904900D4
:1005E00049080B9109990898A64608431CD00B9915
:1005F0000A98084318D0099801244000420D480089
:10060000410D099824050003000B204309900B9825
:100610000003000B20430B9050181C494018002287
:1006200001901446104605E0002001460DB0F0BDD3
:10063000032801DA034600E003239C46C11A0AAEF0
:100640000AE05F0008ADED5B4F00F75B7D430027DC
:10065000AA187C41491C5B1E6145F2DD410004ABD8
:100660005A522104120C0A43240C401C0828DFDBD8
:10067000019802900099704601910090059B049AA0
:100680000799069800F003F9D0E700000DFCFFFF82
:10069000F0B50C465C4085B0E40FE40703944C00D1
:1006A00000266408590094464908024602962243EF
:1006B00021D062460A431ED06200570D4A000E0345
:1006C0002303550D012402462C492405781B1B0BDE
:1006D000360B401823432643614600901C46501AAF
:1006E000B44103D30098401C009002E09218009897
:1006F0005B41002803DA0020014605B0F0BD002070
:10070000012109050746864611E064461D46141B73
:10071000B54106D36546521BB341744607430C43AB
:10072000A646CD0740084908284392185B41054674
:100730000D43EAD11046184313D060461946504085
:100740007140084306D06046101AB34106D2012218
:10075000002306E000220123DB0702E00122D2434E
:100760005310009874460105381C6141029C039D9A
:100770000019694100F07EF8BFE70000FD030000AA
:100780004A0009030123090B1B0519430A4B10B545
:10079000520D9A4202DA0020014610BD064B343356
:1007A0009A4203DC9A1A00F041F810BD034BD218AC
:1007B00000F02CF810BD0000FF030000CDFBFFFF90
:1007C00010B5002904DB0124E40740428C41214696
:1007D000002B04DB1C460123DB075242A341994254
:1007E00000D1904210BD0000064C0125064E05E0E8
:1007F000E36807CC2B430C3C98471034B442F7D342
:10080000FFF762FC582200007822000010B5202A71
:1008100004DB0146203A9140002010BD9140202386
:100820009C1A0346E3401943904010BD10B5202A9E
:1008300004DB0846203AD040002110BD0B46D340CF
:10084000D0402024A21A91400843194610BD10B58B
:10085000202A06DBCB170846203A1041C1170B436C
:1008600006E00B461341D0402024A21A91400843D1
:10087000194610BD10B5002B08DA0024401C614158
:1008800092185B411A4301D14008400010BDF0B5F9
:100890001FB482B005460C0003D0084600F0C4F82F
:1008A00002E000F0C1F820300246009021462846C0
:1008B000FFF7ACFF049B059A04460F46184311430B
:1008C000084314D0184610431BD0009840210A1A40
:1008D00018460599FFF7AAFF05460E46009A0599A6
:1008E0000498FFF793FF084305D0012004E0204659
:1008F000394607B0F0BD0020C11705430E432C4315
:10090000374300990E986305401A7905E40A0022DE
:100910000C43FD0A0A3002D500200146E9E7010533
:10092000101969410C9C0D9D00196941FFF7A2FF48
:10093000DFE7000010B50748C17800790902081800
:1009400080B2FFF7E9FC0449FFF76BFC0349FFF7AE
:10095000A5FC10BD080000200000C84200FF7F4732
:1009600010B50948017840780902081880B2FFF7ED
:10097000D3FC0649FFF755FC0549FFF78FFC0549F5
:10098000FFF7F6FB10BD00000800002000002F4319
:1009900000FF7F47000034C210B50249024800F052
:1009A00081FD10BD200100200030004010B500F096
:1009B000CFFD002805D00E490C484860C8130D49EA
:1009C00088610D48018CC9B201290ED1818C0907BB
:1009D0000BD1018D0906090F042906D1808D00066F
:1009E000000F02D105490120886010BDDFFF07C05C
:1009F00000050040006C0040C00F00F00006004001
:100A000010B501F053FB10BD0FB410B503A9044B92
:100A1000044A029800F0E8F810BC08BC04B018477B
:100A2000971400001C0000202021020C01D010218E
:100A30001046020A01D010460839020901D01046BA
:100A4000091F820801D01046891E420801D0881E65
:100A50007047081A704702E008C8121F08C1002A30
:100A6000FAD170477047002001E001C1121F002A2F
:100A7000FBD17047F0B51FB486B00998089A030DF2
:100A80000021024314D05148514A1818504305140C
:100A90001198012810981AD0281A401C00264D4F92
:100AA0004D49009601910490002812DA444211E069
:100AB0001198012449A3012801D11098C143069837
:100AC000119A84600360C26041600BB0F0BD404287
:100AD000E4E70446210500203F4A001C51410391F0
:100AE000029012E0E00707D032463B460199009899
:100AF000FFF766FD0191009032463B4610461946CD
:100B0000FFF75EFD06460F466410002CEAD10498FC
:100B1000039B0028029A0999089806DAFFF750FD0E
:100B2000019B009AFFF74CFD05E0FFF7B1FD019B2B
:100B3000009AFFF7ADFD04460E460022284BFFF752
:100B40003FFE03D80020C043014607E00022254BAA
:100B500020463146FFF782FCFFF712FE102409E021
:100B6000002C0ADB0A220023FFF707FC079B303228
:100B70001A55641E02460A43F2D11122641C079BD7
:100B8000121B1C19119B012B03D0012308430ED10A
:100B90000AE0084304D0112010900020119077E75C
:100BA0001098151A6D1E0BE01098824202DD00238A
:100BB0006D1C03E0824201DA00236D1E002BEED093
:100BC000069811998260C16030C07EE701FCFFFF8A
:100BD000104D0000000014400000F03F3000000005
:100BE0000000F0430000E03FFFB597B00646002547
:100BF00018E2252877D100242746FD49049400E017
:100C00000443761C32780120203A90400842F7D104
:100C100030782A280ED0022230780146303909294E
:100C200016D804990A235943303940181443761CC6
:100C30000490F1E7189802C804911890002904DA8A
:100C40000120400304434842049002200443761CE0
:100C500030782E2814D1042004437078761C2A287A
:100C600009D11898761C80C8189009E00A214F43D2
:100C7000303FC719761C3078014630390929F5D93B
:100C800030786C2810D006DC4C281AD068280ED09A
:100C90006A2817D104E0742813D07A2812D110E002
:100CA0000120400504430CE00121090501E0032176
:100CB00009050C437178814203D1012000052418F5
:100CC000761C761C3078119066280BD013DC5828DF
:100CD0007DD009DC00287BD04528F6D04628F4D00A
:100CE00047281AD1A5E118E0632835D0642870D0D0
:100CF000652812D19DE170286CD008DC6728F1D0FE
:100D000069287BD06E280DD06F2806D1BAE07328F1
:100D10002ED0752871D0782859D01A9A19999047F1
:100D20006D1C7EE16002400F022809D003280DD01F
:100D30000428189801680DD00D60001D189070E10E
:100D40001898EA1701680D604A60F6E7189801687C
:100D50000D80F2E70D70F0E718986A46017811727D
:100D6000001D18900020507202A80090012005E09C
:100D7000189802C8189000200091C04361070DD553
:100D8000002101E00199491C0191B94212DA814226
:100D9000F8DB009A515C0029F4D10BE0002101E05E
:100DA0000199491C01918142FADB019A0099895C01
:100DB0000029F5D1019904981A9B471A2146384613
:100DC000199A00F097FA0199401945180BE04FE085
:100DD0002CE113E04EE0009800990078491C009146
:100DE0001A9A199990470198401E0190401CF2D11F
:100DF000214638461A9B199A10E137E00A20002153
:100E0000009001916002410F022907D0189A01CA8F
:100E10001892C2179446032908D00AE01898C01DFA
:100E2000C108C90005C91891944607E000B2C2176D
:100E30009446042902D140B2C1178C460022614673
:100E4000944506DA0A460021404291418C462D2104
:100E500002E0210504D52B216A461173012103E02C
:100E6000E10701D02021F7E7029155E00A200AE0CE
:100E7000102008E01020009000210420044301917C
:100E8000082703E008200021019100906002410F33
:100E9000022907D0189A01CA189200229446032901
:100EA00008D008E01898C01DC108C90005C91891EC
:100EB000944603E080B2042900D1C0B2002102911F
:100EC000210729D51199702906D0009A1021019B7C
:100ED0004A401A4305D00EE040216A4611730121B1
:100EE00008E06146014306D030216A46117311992A
:100EF000517302210291009A0821019B4A401A4332
:100F00000AD16146014301D1610705D530216A4606
:100F1000117301217F1E02911199582904D035A126
:100F20000E910DA90D910DE037A1F9E76146019BE6
:100F3000009AFFF722FA0E9B8C469B5C0D9A521E7C
:100F40000D92137061460143F0D10D9805A9081A5E
:100F500020300190600703D501200004844300E0A5
:100F600001270198874201DD381A00E0002001992D
:100F700000904118029809180498401A0490E00360
:100F800006D421461A9B199A049800F0B3F9451922
:100F9000002706E003A81A9AC05D199990476D1CB6
:100FA0007F1C02988742F5DBE0030CD521461A9B93
:100FB000199A049800F09EF9451904E01A9A302015
:100FC000199990476D1C0099481E00900029F5DC86
:100FD00008E00D980D990078491C0D911A9A1999FD
:100FE00090476D1C0199481E01900029F1DC63E1D6
:100FF00009280100303132333435363738396162EF
:1010000063646566000000003031323334353637B2
:1010100038394142434445460000000000F05AF987
:101020004519761C3078002800D0E2E528461BB030
:10103000F0BD600700D406271898C01DC108C9007C
:1010400048680A680831C30FDB071891190001D0FE
:101050009CA108E0210501D59BA104E0E10701D096
:101060009AA100E09AA1430011985B0810916528AD
:101070000CD006DC452809D046281DD0472841D190
:1010800041E0662818D067283CD13CE00021112FB0
:1010900001DB112000E0781C0191009008A911A843
:1010A000FFF7E8FC139905910021119A15927F1C16
:1010B00012980197009150E00120C0070390012091
:1010C000019008A9009711A8FFF7D4FC139A14996E
:1010D00005920022119B009212981593059A019295
:1010E000002901D0104602E0791C40180190381AFE
:1010F00001D5019804E04042401E0090781C019008
:10110000C01B029043E0012F00DA01270021112FBC
:1011100001DD112000E038460191009008A911A8D6
:10112000FFF7A8FC13990591119A002112981592C6
:101130000091019721070CD40599B94201DB01996F
:1011400000E00191012904DD159A491E515C302906
:1011500006D0B84201DA011D05DA0121029115E03D
:101160000199491EEDE7002805DC0099411800911E
:101170000199091A03E0019A411C914200DD019195
:101180000099401A401C02900120C00703902007DC
:1011900006D402990198814202DB0020C0430290EC
:1011A00000206946C87707AF012103980337C907B4
:1011B000884224D0022011902B20129003980028FE
:1011C0000CDA404203902D20129007E00A21039888
:1011D000FFF7BDF830317F1E039039701199481E1A
:1011E00011900029F2DC03980028EFD1791E1298A3
:1011F00008703078202108404530BF1E387006A89E
:10120000C01BC01D039010980078002800D001205A
:10121000019941180298C0170918039809180498F1
:10122000401A401E0490E00306D421461A9B199AE6
:10123000049800F05FF8451910980078002803D052
:101240001A9A199990476D1CE00324D521461A9BE0
:10125000199A049800F04EF845191CE000980028EF
:1012600007DB00990598884203DD1598405C1999C1
:1012700001E0199930201A9A904700986D1C401C83
:1012800000900298401E0290002804D11A9A2E2045
:10129000199990476D1C0199481E01900029DDDCC9
:1012A00005E038781A9A7F1C199990476D1C0399AC
:1012B000481E03900029F4DC21461A9B199A0498D1
:1012C000ACE600002D0000002B0000002000000014
:1012D00000000000F8B5044600251E4617468804A5
:1012E00004D405E039462020B0476D1C641EF9D5B2
:1012F0002846F8BDFFB50446002581B01E46C80348
:1013000001D5302700E02027880404D505E03846C1
:101310000399B0476D1C641EF9D5284605B0F0BD91
:10132000BFF34F8F04490348C860BFF34F8F00BF1E
:10133000FDE700000400FA0500ED00E00EB5002115
:10134000029000916A4601910148FFF7E9FF000011
:101350000140000010B58268C368934203D000F0DA
:1013600087F8002010BD052010BD002906D0002AF6
:1013700002D0531E134203D0092070470E2070473D
:101380000160838000218160C1600846704710B50C
:101390008268C3689A1A83889A4203D800F072F868
:1013A000002010BD042010BD70B50446224888B04E
:1013B0001E460D0042601CD0A888296882B21F48D2
:1013C000FFF7D3FF002815D1A889A96882B21B486E
:1013D0001030FFF7CAFF00280CD1202218496846B8
:1013E000FEF7B4FEA06806902079002804D0012101
:1013F00003E0072008B070BD00216846017506773C
:101400006079002800D00E2069464875E078029087
:10141000A078039020780190607800900949684690
:1014200000F0EEF90028E5D100F074FA024801213D
:10143000801C00F049FADDE7140000206401002060
:1014400038220000E91F000010B5044606480121BB
:101450004470401C00F0B8FA112803D1214603481B
:10146000FFF795FF10BD000014000020740100205C
:10147000826883881A4003689A5C0A708168491CF4
:1014800081607047C26883881A4003689954C168B4
:10149000491CC160704710B50446C0B2FFF7D4FFC5
:1014A000204610BD7FB50C460D46203506466978AE
:1014B00028780191009022462632D11E3046E369F9
:1014C00000F05DFC002819D1E87800281DD1207BB0
:1014D000022801D0032818D12269E169914214D170
:1014E0006269E261E37B2B70217E8906C90F697016
:1014F000032804D03146204600F0E4FB7FBD009174
:101500003146204600F0BEFC7FBD20460C3007C8A7
:1015100001AB07C3E878002100280ED00920C001E4
:101520003218506C5064820701D5012002E0400758
:1015300005D502206A46107001E0684601702971E5
:10154000207E4007E0D422686846616890477FBDEE
:101550001048018CC9B2012917D1818C090714D117
:10156000018D09060A0F03D1828D1206120F0ED0CB
:10157000090F012903D1828D1206120F07D003290A
:1015800003D1808D0006000F01D00020704701209C
:1015900070470000C00F00F01F4A88B007CA04ABB4
:1015A00007C31E480090012001901D480290FF20B3
:1015B0000130039003231B4A694604A8FFF7F4FE99
:1015C000002801D0FFF7BAFE17A0FFF71DFA00F0C0
:1015D0005FFB19A0FFF718FA1BA0FFF715FA7D268D
:1015E0000E4CF6000025A41E304600F039F819A074
:1015F000FFF70AFA084A02230C3A4421101D00950D
:1016000000F0D6F820BF21780029FBD0002801D0B7
:10161000FFF794FE2570E7E7E021000002000020BC
:1016200020000020992000000A0D554152542D43FE
:101630006F6E6669670D0A000A0D5457492D436F96
:101640006E6669670D0A00000A0D53746172742199
:101650000D0A00000A0D576F726B696E670A0D0064
:1016600031B5054C04E0401E00902046FEF732FDE7
:1016700000980028F7D138BDE70300008207D30E99
:10168000FF229A408907090E10B5994000280BDA0D
:1016900003071B0F083B9C080C4BA400E318DC69F4
:1016A00094430C43DC6107E08408094BA400E41870
:1016B000236893430B432360C106C90E0120884071
:1016C000044908600449086010BD000000ED00E016
:1016D00000E400E080E200E000E100E0017928227F
:1016E0005143054A0068891805221302C018026098
:1016F000022020318870704720010020F8B507468D
:101700000C46007928211D4D41434D192E462036A7
:10171000B178002901D00820F8BD002C02D1184969
:10172000000144180CC500202860707130712146FA
:101730003846083D00F03CFA206812498200124801
:101740001218116062689200101801600523386851
:101750001B0206CCC0188160C26021684162286803
:10176000083C002805D03868217B000B40B2FFF709
:1017700085FF0120B0700020F8BD0000200100208E
:10178000FC2100000C060000000700503EB5074D8C
:101790002C69AD69009402956C466170A37001924A
:1017A0000022694600F016F83EBD0000FC21000052
:1017B0003EB50025069C009502956D466970AB709C
:1017C0000192002C01D0202200E00022294600F0E6
:1017D00001F83EBD70B50D46D10701D1910701D585
:1017E000062070BD017928235943044BCC181346B9
:1017F00001682A46204600F08BFB70BD20010020C6
:10180000F3B52A4C0746E07E81B0002801D00820BD
:10181000FEBD002F00D1264F386800F03AF9387825
:10182000012631468140234881600021786800F01C
:1018300027F9214DB8696862787D397D0843E866EB
:1018400003CFE8606961387B083F01280FD1002190
:10185000B86800F015F9F86800F01BF9387B3146DC
:10186000814014488160F968B868A96028610298CD
:1018700060603969216000280ED0FF230F481D33B6
:10188000397F0022C250FF234533C2500D4A0C4815
:1018900050600220FFF7F2FE042028600020E0756F
:1018A0002076A075E676A076FEBD000048010020F7
:1018B00018220000000500500025004000200040D4
:1018C0008000020000230040F8B5104B81245E68C0
:1018D0000022A4000E4D002E00D0AC60DF7D002F52
:1018E0000BD01A7E002A04D0002E00D06C6011208C
:1018F000F8BD18610122197604E0D9750024D8607A
:101900005C761C7600F012F8F8BD0000480100205B
:101910000023004010B5044CA07E002803D100F045
:1019200039F90120A07610BD48010020F8B5234DFB
:10193000A87E104301D100F02DF96868204C0028E2
:1019400005D081201F49800048600020F8BDFF209D
:10195000453000212150FF212531204600F0B1F80B
:101960000546FF210931204600F0ABF80746FF216C
:101970004531204600F0A5F8064639463143294353
:10198000E9D02846304306D100F0DAF80B48C17D93
:10199000407E8142DFD800210848002DC17501D06A
:1019A0000320F8BD002E01D00F20F8BD817E01205C
:1019B000002901D02060C8E76060C6E74801002028
:1019C000002000400023004010B5064A937D002B04
:1019D00001D0112010BD917590600020908200F020
:1019E00003F810BD48010020F8B50026194FFF2567
:1019F0001D357E510120B86000F0D0FA164C6168A8
:101A0000002910D022E0FF2701372946114800F0B5
:101A100058F8002802D1A08AB842F6D1A08AB8426C
:101A200001D000F0BBFAA08AA17D8842EBD3A18A45
:101A3000C81FF9380CD0074F2946384600F041F846
:101A40000028F9D00120F8600020A0753046F8BDCC
:101A50000F26F9E7002000404801002030B5520071
:101A60000A439900039C0A432102049D0A43290466
:101A70000A43024980004018026030BD0007005050
:101A80001CB500220B46009211460192FFF7E6FFBB
:101A90001CBD1CB5002100910B460122019111468D
:101AA000FFF7DCFF1CBD000001218140014881607F
:101AB00070470000000500504058002800D0012069
:101AC00070474058002800D00120704703221202BE
:101AD00080184068084000D001207047FEB5FEF72E
:101AE0003FFF0646FEF726FF01460A4845686D1C83
:101AF00045600846FEF717FC04460F463046FEF7E1
:101B000012FC02460B46294603A001970094FEF7FB
:101B10007BFFFEBD000000204E6F2E25643A20544E
:101B2000656D70203D20252E3266202C2048756D75
:101B30006964203D20252E32662525200A000000FC
:101B400030B50A48FF21C57D0022094C0931094BF7
:101B5000002D625007D09969437EC268D154417EFE
:101B6000491C417630BD986930BD00004801002015
:101B700000200040002500401FB501236A46137075
:101B800010720348019106C8684690471FBD0000C7
:101B900048010020FF220548253200218150FF2204
:101BA000093281500121016070470000002000408F
:101BB000F8B50C460968224D89002048491908608B
:101BC00061688900491908602068FFF76DFF606847
:101BD000FFF76AFF19482168401C8900491908600D
:101BE00061688900491908600420FEF783FA00251E
:101BF000144F012620793969C140C807C00F02D0AF
:101C0000002D19D00FE0207831468140F960042082
:101C1000FEF770FA2068FFF747FF0420FEF76AFA24
:101C20006D1C092DE6DB20798640FE600420FEF75E
:101C300061FA6068FFF738FFF8BD00000C0600008D
:101C4000000700500005005070B50178002907D149
:101C5000007901250C4C002803D0FFF73FFF2570C9
:101C600070BD607800280DD000202070064A062341
:101C7000083244210548FFF789FD0028F0D0FFF71E
:101C80005DFB70BD657070BD00000020D8210000B4
:101C90001FB50A4B6C460FCB0FC408480023084AF7
:101CA00069461438FFF72AFD002801D0FFF746FBEC
:101CB00002481438FFF712FD1FBD0000EC210000A0
:101CC000491C0000FFB50027FF2285B00C460532F5
:101CD0001E46A750FF222532A750FF221D32A750D3
:101CE000FF220932A75005462035CA1DFF32AF71C9
:101CF000FA32EF70012B0FD0012313600122226210
:101D000022600268002A09D010498160806803219E
:101D100009026118486015E00223EEE7014626310A
:101D20002330039102900020019000962046079BEB
:101D3000039A029900F023F80028F4D1E8780028EB
:101D400000D00327384609B0F0BD0000860200002D
:101D500030B51C78039D944208D205221202095D19
:101D60008018C1611878401C187006E00121002D10
:101D700002D0C161002030BD4161012030BDFFB5FE
:101D80000F46097881B00446012904D003980278EF
:101D90000A98824201D1012600E00026FF2025306A
:101DA0000025002907D02550FF201D302550FF2099
:101DB0000930255056E0FF2125312046FFF77CFEF3
:101DC00000282CD1FF211D312046FFF775FE002889
:101DD00014D0FF201D302550FF2125312046FFF76C
:101DE0006BFE00281BD10B9800902046039B0A9A9B
:101DF0000499FFF7ADFF002840D033E0FF210931FF
:101E00002046FFF759FE00282CD0FF20093025502E
:101E1000FF2125312046FFF74FFE002806D0FF2086
:101E2000253025500120606138701BE003990A9825
:101E30000F78049ABC46874214D205231B02E3188C
:101E40009B696746D3550A78521CD2B20A70411E6C
:101E50008A4203D102200102085101E0824201D0EE
:101E600001212162002E0BD0FF2605363146204687
:101E7000FFF722FE002803D0A551002005B0F0BDD9
:101E80000120FBE7FFB5054687B00C460020FF2187
:101E9000109F053105906050FF2125316050FF21D2
:101EA0001D316050FF2109316050012149022E4649
:101EB00008512036B071F07001202062A060B31D7F
:101EC0000097029320460A9A0999FFF741FF286874
:101ED000002807D00D48A860A868032109026118EE
:101EE000486010E023350A98009001972946204663
:101EF000099B029AFFF743FF0028F4D1F0780028ED
:101F000001D00320059005980BB0F0BD86020000BB
:101F1000F8B5044600250320ED430002081885604B
:101F2000254620352E79002E03D0A168416011206E
:101F3000F8BD5807C017401C2871180701D50620A6
:101F4000F8BDA361C1CA0C34C1C40C3A90782870A2
:101F500050680B266060F60150788E19B0601078DA
:101F60000026183C01280ED0002801D1980601D582
:101F7000012000E0002068700090937852682046AD
:101F8000FFF780FF05E06E70937852682046FFF7F8
:101F900099FE21680029D3D12E71F8BDFF21074891
:101FA0001D31002242500648828A8168895C828AFB
:101FB000521C82820348C16170470000002000402B
:101FC00048010020002500401FB500216A4611701D
:101FD0001072044882680192817506C8684690476D
:101FE0001FBD0000480100207CB50178284D012963
:101FF0000AD002292FD000292CD129462548FFF7E5
:10200000A9F9002833D036E040680178214810381B
:10201000FFF7BDF91F4C103C002805D001216A468E
:1020200011700190684608E0A068E168081A01286C
:1020300005D1002069460870684669688847A0682D
:10204000E168081AA188884204D811480121801C3F
:10205000FFF73AFC7CBD02216A461170C06801900E
:102060000B480121801CFFF72FFC68460CE0012182
:102070000748FFF7A9FC07488168C0688842E9D192
:102080000320694608706846696888477CBD00007F
:10209000140000207401002010B50178012901D03E
:1020A000022902D14068FFF749F910BDF0B5454D4E
:1020B000012185B049022846FFF708FD01270026C7
:1020C000414C002824D0FF2125312846FFF7F9FC98
:1020D00000281DD0FF2025302E5081203B49800054
:1020E0008860A07E002800D16F60022168460170E0
:1020F0003749086808600390E17D68460172E0682E
:102100000190E675267606CC6846083C90472BE0A1
:1021100004212846FFF7DAFC002825D0FF210931E9
:102120002846FFF7CEFC00281ED0FFF709FDE07D12
:10213000617E884218D1207E002808D0627EE16846
:10214000E0752069E0602676667610460AE0A07E9B
:10215000002800D16F6081201C4980008860E675EE
:10216000607EE168FFF708FDFF211D312846FFF77B
:10217000A8FC00280DD0A18AA07D814202D2FFF7E1
:102180000DFF06E0FF211D316E50002801D0FFF742
:102190001BFFFF2145312846FFF793FC00280ED096
:1021A000FF2045302E50A07E002800D02F60E07D1B
:1021B000002804D0E675607EE168FFF7DDFC05B01D
:1021C000F0BD000000200040480100200023004036
:1021D000802400402C10000000300040000000006F
:1021E0001917080A0000000000502700070000002F
:1021F0000500000000009801010000000700000039
:102200001E00000000009801030000000100000013
:102210000000000000000000090000000B000000AA
:102220000A0000000800000000000000000000009C
:1022300000509D0003000000090000000B0000009A
:102240000A0000000800000000000000000000007C
:1022500000509D00030000007822000000000020D4
:1022600020000000560A00009822000020000020F4
:1022700068090000660A000001000000000000007C
:1022800000000000000000000024F4000000000036
:08229000000000000000000046
:04000005000000C136
:00000001FF
